{
  "_format": "hh-sol-artifact-1",
  "abi": [
    {
      "inputs": [
        {
          "internalType": "address",
          "name": "curvesERC20Factory_",
          "type": "address"
        },
        {
          "internalType": "address",
          "name": "feeRedistributor_",
          "type": "address"
        }
      ],
      "stateMutability": "nonpayable",
      "type": "constructor"
    },
    {
      "inputs": [],
      "name": "CannotSendFunds",
      "type": "error"
    },
    {
      "inputs": [],
      "name": "ContractCannotReceiveTransfer",
      "type": "error"
    },
    {
      "inputs": [],
      "name": "CurveAlreadyExists",
      "type": "error"
    },
    {
      "inputs": [],
      "name": "ERC20TokenAlreadyMinted",
      "type": "error"
    },
    {
      "inputs": [],
      "name": "ExceededMaxBuyAmount",
      "type": "error"
    },
    {
      "inputs": [],
      "name": "InsufficientBalance",
      "type": "error"
    },
    {
      "inputs": [],
      "name": "InsufficientPayment",
      "type": "error"
    },
    {
      "inputs": [],
      "name": "InvalidERC20Metadata",
      "type": "error"
    },
    {
      "inputs": [],
      "name": "InvalidFeeDefinition",
      "type": "error"
    },
    {
      "inputs": [],
      "name": "InvalidPresaleStartTime",
      "type": "error"
    },
    {
      "inputs": [],
      "name": "LastTokenCannotBeSold",
      "type": "error"
    },
    {
      "inputs": [],
      "name": "NonIntegerDepositAmount",
      "type": "error"
    },
    {
      "inputs": [],
      "name": "PresaleUnavailable",
      "type": "error"
    },
    {
      "inputs": [],
      "name": "SaleNotOpen",
      "type": "error"
    },
    {
      "inputs": [],
      "name": "TokenAbsentForCurvesTokenSubject",
      "type": "error"
    },
    {
      "inputs": [],
      "name": "UnauthorizedCurvesTokenSubject",
      "type": "error"
    },
    {
      "inputs": [],
      "name": "UnverifiedProof",
      "type": "error"
    },
    {
      "anonymous": false,
      "inputs": [
        {
          "indexed": false,
          "internalType": "address",
          "name": "trader",
          "type": "address"
        },
        {
          "indexed": false,
          "internalType": "address",
          "name": "subject",
          "type": "address"
        },
        {
          "indexed": false,
          "internalType": "bool",
          "name": "isBuy",
          "type": "bool"
        },
        {
          "indexed": false,
          "internalType": "uint256",
          "name": "tokenAmount",
          "type": "uint256"
        },
        {
          "indexed": false,
          "internalType": "uint256",
          "name": "ethAmount",
          "type": "uint256"
        },
        {
          "indexed": false,
          "internalType": "uint256",
          "name": "protocolEthAmount",
          "type": "uint256"
        },
        {
          "indexed": false,
          "internalType": "uint256",
          "name": "subjectEthAmount",
          "type": "uint256"
        },
        {
          "indexed": false,
          "internalType": "uint256",
          "name": "supply",
          "type": "uint256"
        }
      ],
      "name": "Trade",
      "type": "event"
    },
    {
      "anonymous": false,
      "inputs": [
        {
          "indexed": true,
          "internalType": "address",
          "name": "curvesTokenSubject",
          "type": "address"
        },
        {
          "indexed": true,
          "internalType": "address",
          "name": "from",
          "type": "address"
        },
        {
          "indexed": true,
          "internalType": "address",
          "name": "to",
          "type": "address"
        },
        {
          "indexed": false,
          "internalType": "uint256",
          "name": "value",
          "type": "uint256"
        }
      ],
      "name": "Transfer",
      "type": "event"
    },
    {
      "anonymous": false,
      "inputs": [
        {
          "indexed": true,
          "internalType": "address",
          "name": "presale",
          "type": "address"
        },
        {
          "indexed": true,
          "internalType": "bytes32",
          "name": "root",
          "type": "bytes32"
        }
      ],
      "name": "WhitelistUpdated",
      "type": "event"
    },
    {
      "inputs": [],
      "name": "DEFAULT_NAME",
      "outputs": [
        {
          "internalType": "string",
          "name": "",
          "type": "string"
        }
      ],
      "stateMutability": "view",
      "type": "function"
    },
    {
      "inputs": [],
      "name": "DEFAULT_SYMBOL",
      "outputs": [
        {
          "internalType": "string",
          "name": "",
          "type": "string"
        }
      ],
      "stateMutability": "view",
      "type": "function"
    },
    {
      "inputs": [
        {
          "internalType": "address",
          "name": "curvesTokenSubject",
          "type": "address"
        },
        {
          "internalType": "uint256",
          "name": "amount",
          "type": "uint256"
        }
      ],
      "name": "buyCurvesToken",
      "outputs": [],
      "stateMutability": "payable",
      "type": "function"
    },
    {
      "inputs": [
        {
          "internalType": "address",
          "name": "curvesTokenSubject",
          "type": "address"
        },
        {
          "internalType": "uint256",
          "name": "amount",
          "type": "uint256"
        },
        {
          "internalType": "uint256",
          "name": "startTime",
          "type": "uint256"
        },
        {
          "internalType": "bytes32",
          "name": "merkleRoot",
          "type": "bytes32"
        },
        {
          "internalType": "uint256",
          "name": "maxBuy",
          "type": "uint256"
        }
      ],
      "name": "buyCurvesTokenForPresale",
      "outputs": [],
      "stateMutability": "payable",
      "type": "function"
    },
    {
      "inputs": [
        {
          "internalType": "address",
          "name": "curvesTokenSubject",
          "type": "address"
        },
        {
          "internalType": "uint256",
          "name": "amount",
          "type": "uint256"
        },
        {
          "internalType": "bytes32[]",
          "name": "proof",
          "type": "bytes32[]"
        }
      ],
      "name": "buyCurvesTokenWhitelisted",
      "outputs": [],
      "stateMutability": "payable",
      "type": "function"
    },
    {
      "inputs": [
        {
          "internalType": "address",
          "name": "curvesTokenSubject",
          "type": "address"
        },
        {
          "internalType": "uint256",
          "name": "amount",
          "type": "uint256"
        },
        {
          "internalType": "string",
          "name": "name",
          "type": "string"
        },
        {
          "internalType": "string",
          "name": "symbol",
          "type": "string"
        }
      ],
      "name": "buyCurvesTokenWithName",
      "outputs": [],
      "stateMutability": "payable",
      "type": "function"
    },
    {
      "inputs": [],
      "name": "curvesERC20Factory",
      "outputs": [
        {
          "internalType": "address",
          "name": "",
          "type": "address"
        }
      ],
      "stateMutability": "view",
      "type": "function"
    },
    {
      "inputs": [
        {
          "internalType": "address",
          "name": "",
          "type": "address"
        },
        {
          "internalType": "address",
          "name": "",
          "type": "address"
        }
      ],
      "name": "curvesTokenBalance",
      "outputs": [
        {
          "internalType": "uint256",
          "name": "",
          "type": "uint256"
        }
      ],
      "stateMutability": "view",
      "type": "function"
    },
    {
      "inputs": [
        {
          "internalType": "address",
          "name": "",
          "type": "address"
        }
      ],
      "name": "curvesTokenSupply",
      "outputs": [
        {
          "internalType": "uint256",
          "name": "",
          "type": "uint256"
        }
      ],
      "stateMutability": "view",
      "type": "function"
    },
    {
      "inputs": [
        {
          "internalType": "address",
          "name": "curvesTokenSubject",
          "type": "address"
        },
        {
          "internalType": "uint256",
          "name": "amount",
          "type": "uint256"
        }
      ],
      "name": "deposit",
      "outputs": [],
      "stateMutability": "nonpayable",
      "type": "function"
    },
    {
      "inputs": [
        {
          "internalType": "address",
          "name": "",
          "type": "address"
        }
      ],
      "name": "externalCurvesTokens",
      "outputs": [
        {
          "internalType": "string",
          "name": "name",
          "type": "string"
        },
        {
          "internalType": "string",
          "name": "symbol",
          "type": "string"
        },
        {
          "internalType": "address",
          "name": "token",
          "type": "address"
        }
      ],
      "stateMutability": "view",
      "type": "function"
    },
    {
      "inputs": [],
      "name": "feeRedistributor",
      "outputs": [
        {
          "internalType": "contract FeeSplitter",
          "name": "",
          "type": "address"
        }
      ],
      "stateMutability": "view",
      "type": "function"
    },
    {
      "inputs": [],
      "name": "feesEconomics",
      "outputs": [
        {
          "internalType": "address",
          "name": "protocolFeeDestination",
          "type": "address"
        },
        {
          "internalType": "uint256",
          "name": "protocolFeePercent",
          "type": "uint256"
        },
        {
          "internalType": "uint256",
          "name": "subjectFeePercent",
          "type": "uint256"
        },
        {
          "internalType": "uint256",
          "name": "referralFeePercent",
          "type": "uint256"
        },
        {
          "internalType": "uint256",
          "name": "holdersFeePercent",
          "type": "uint256"
        },
        {
          "internalType": "uint256",
          "name": "maxFeePercent",
          "type": "uint256"
        }
      ],
      "stateMutability": "view",
      "type": "function"
    },
    {
      "inputs": [
        {
          "internalType": "address",
          "name": "curvesTokenSubject",
          "type": "address"
        },
        {
          "internalType": "uint256",
          "name": "amount",
          "type": "uint256"
        }
      ],
      "name": "getBuyPrice",
      "outputs": [
        {
          "internalType": "uint256",
          "name": "",
          "type": "uint256"
        }
      ],
      "stateMutability": "view",
      "type": "function"
    },
    {
      "inputs": [
        {
          "internalType": "address",
          "name": "curvesTokenSubject",
          "type": "address"
        },
        {
          "internalType": "uint256",
          "name": "amount",
          "type": "uint256"
        }
      ],
      "name": "getBuyPriceAfterFee",
      "outputs": [
        {
          "internalType": "uint256",
          "name": "",
          "type": "uint256"
        }
      ],
      "stateMutability": "view",
      "type": "function"
    },
    {
      "inputs": [
        {
          "internalType": "uint256",
          "name": "price",
          "type": "uint256"
        }
      ],
      "name": "getFees",
      "outputs": [
        {
          "internalType": "uint256",
          "name": "protocolFee",
          "type": "uint256"
        },
        {
          "internalType": "uint256",
          "name": "subjectFee",
          "type": "uint256"
        },
        {
          "internalType": "uint256",
          "name": "referralFee",
          "type": "uint256"
        },
        {
          "internalType": "uint256",
          "name": "holdersFee",
          "type": "uint256"
        },
        {
          "internalType": "uint256",
          "name": "totalFee",
          "type": "uint256"
        }
      ],
      "stateMutability": "view",
      "type": "function"
    },
    {
      "inputs": [
        {
          "internalType": "uint256",
          "name": "supply",
          "type": "uint256"
        },
        {
          "internalType": "uint256",
          "name": "amount",
          "type": "uint256"
        }
      ],
      "name": "getPrice",
      "outputs": [
        {
          "internalType": "uint256",
          "name": "",
          "type": "uint256"
        }
      ],
      "stateMutability": "pure",
      "type": "function"
    },
    {
      "inputs": [
        {
          "internalType": "address",
          "name": "curvesTokenSubject",
          "type": "address"
        },
        {
          "internalType": "uint256",
          "name": "amount",
          "type": "uint256"
        }
      ],
      "name": "getSellPrice",
      "outputs": [
        {
          "internalType": "uint256",
          "name": "",
          "type": "uint256"
        }
      ],
      "stateMutability": "view",
      "type": "function"
    },
    {
      "inputs": [
        {
          "internalType": "address",
          "name": "curvesTokenSubject",
          "type": "address"
        },
        {
          "internalType": "uint256",
          "name": "amount",
          "type": "uint256"
        }
      ],
      "name": "getSellPriceAfterFee",
      "outputs": [
        {
          "internalType": "uint256",
          "name": "",
          "type": "uint256"
        }
      ],
      "stateMutability": "view",
      "type": "function"
    },
    {
      "inputs": [
        {
          "internalType": "address",
          "name": "",
          "type": "address"
        }
      ],
      "name": "managers",
      "outputs": [
        {
          "internalType": "bool",
          "name": "",
          "type": "bool"
        }
      ],
      "stateMutability": "view",
      "type": "function"
    },
    {
      "inputs": [
        {
          "internalType": "address",
          "name": "curvesTokenSubject",
          "type": "address"
        }
      ],
      "name": "mint",
      "outputs": [],
      "stateMutability": "nonpayable",
      "type": "function"
    },
    {
      "inputs": [],
      "name": "owner",
      "outputs": [
        {
          "internalType": "address",
          "name": "",
          "type": "address"
        }
      ],
      "stateMutability": "view",
      "type": "function"
    },
    {
      "inputs": [
        {
          "internalType": "address",
          "name": "",
          "type": "address"
        },
        {
          "internalType": "address",
          "name": "",
          "type": "address"
        }
      ],
      "name": "presalesBuys",
      "outputs": [
        {
          "internalType": "uint256",
          "name": "",
          "type": "uint256"
        }
      ],
      "stateMutability": "view",
      "type": "function"
    },
    {
      "inputs": [
        {
          "internalType": "address",
          "name": "",
          "type": "address"
        }
      ],
      "name": "presalesMeta",
      "outputs": [
        {
          "internalType": "uint256",
          "name": "startTime",
          "type": "uint256"
        },
        {
          "internalType": "bytes32",
          "name": "merkleRoot",
          "type": "bytes32"
        },
        {
          "internalType": "uint256",
          "name": "maxBuy",
          "type": "uint256"
        }
      ],
      "stateMutability": "view",
      "type": "function"
    },
    {
      "inputs": [
        {
          "internalType": "address",
          "name": "",
          "type": "address"
        }
      ],
      "name": "referralFeeDestination",
      "outputs": [
        {
          "internalType": "address",
          "name": "",
          "type": "address"
        }
      ],
      "stateMutability": "view",
      "type": "function"
    },
    {
      "inputs": [
        {
          "internalType": "address",
          "name": "curvesTokenSubject",
          "type": "address"
        },
        {
          "internalType": "uint256",
          "name": "amount",
          "type": "uint256"
        }
      ],
      "name": "sellCurvesToken",
      "outputs": [],
      "stateMutability": "nonpayable",
      "type": "function"
    },
    {
      "inputs": [
        {
          "internalType": "address",
          "name": "curvesTokenSubject",
          "type": "address"
        },
        {
          "internalType": "uint256",
          "name": "amount",
          "type": "uint256"
        }
      ],
      "name": "sellExternalCurvesToken",
      "outputs": [],
      "stateMutability": "nonpayable",
      "type": "function"
    },
    {
      "inputs": [
        {
          "internalType": "address",
          "name": "factory_",
          "type": "address"
        }
      ],
      "name": "setERC20Factory",
      "outputs": [],
      "stateMutability": "nonpayable",
      "type": "function"
    },
    {
      "inputs": [
        {
          "internalType": "uint256",
          "name": "subjectFeePercent_",
          "type": "uint256"
        },
        {
          "internalType": "uint256",
          "name": "referralFeePercent_",
          "type": "uint256"
        },
        {
          "internalType": "uint256",
          "name": "holdersFeePercent_",
          "type": "uint256"
        }
      ],
      "name": "setExternalFeePercent",
      "outputs": [],
      "stateMutability": "nonpayable",
      "type": "function"
    },
    {
      "inputs": [
        {
          "internalType": "address",
          "name": "feeRedistributor_",
          "type": "address"
        }
      ],
      "name": "setFeeRedistributor",
      "outputs": [],
      "stateMutability": "nonpayable",
      "type": "function"
    },
    {
      "inputs": [
        {
          "internalType": "address",
          "name": "manager_",
          "type": "address"
        },
        {
          "internalType": "bool",
          "name": "value",
          "type": "bool"
        }
      ],
      "name": "setManager",
      "outputs": [],
      "stateMutability": "nonpayable",
      "type": "function"
    },
    {
      "inputs": [
        {
          "internalType": "uint256",
          "name": "maxFeePercent_",
          "type": "uint256"
        }
      ],
      "name": "setMaxFeePercent",
      "outputs": [],
      "stateMutability": "nonpayable",
      "type": "function"
    },
    {
      "inputs": [
        {
          "internalType": "address",
          "name": "curvesTokenSubject",
          "type": "address"
        },
        {
          "internalType": "string",
          "name": "name",
          "type": "string"
        },
        {
          "internalType": "string",
          "name": "symbol",
          "type": "string"
        }
      ],
      "name": "setNameAndSymbol",
      "outputs": [],
      "stateMutability": "nonpayable",
      "type": "function"
    },
    {
      "inputs": [
        {
          "internalType": "uint256",
          "name": "protocolFeePercent_",
          "type": "uint256"
        },
        {
          "internalType": "address",
          "name": "protocolFeeDestination_",
          "type": "address"
        }
      ],
      "name": "setProtocolFeePercent",
      "outputs": [],
      "stateMutability": "nonpayable",
      "type": "function"
    },
    {
      "inputs": [
        {
          "internalType": "address",
          "name": "curvesTokenSubject",
          "type": "address"
        },
        {
          "internalType": "address",
          "name": "referralFeeDestination_",
          "type": "address"
        }
      ],
      "name": "setReferralFeeDestination",
      "outputs": [],
      "stateMutability": "nonpayable",
      "type": "function"
    },
    {
      "inputs": [
        {
          "internalType": "bytes32",
          "name": "merkleRoot",
          "type": "bytes32"
        }
      ],
      "name": "setWhitelist",
      "outputs": [],
      "stateMutability": "nonpayable",
      "type": "function"
    },
    {
      "inputs": [
        {
          "internalType": "string",
          "name": "",
          "type": "string"
        }
      ],
      "name": "tokenBySymbol",
      "outputs": [
        {
          "internalType": "address",
          "name": "",
          "type": "address"
        }
      ],
      "stateMutability": "view",
      "type": "function"
    },
    {
      "inputs": [
        {
          "internalType": "address",
          "name": "to",
          "type": "address"
        }
      ],
      "name": "transferAllCurvesTokens",
      "outputs": [],
      "stateMutability": "nonpayable",
      "type": "function"
    },
    {
      "inputs": [
        {
          "internalType": "address",
          "name": "curvesTokenSubject",
          "type": "address"
        },
        {
          "internalType": "address",
          "name": "to",
          "type": "address"
        },
        {
          "internalType": "uint256",
          "name": "amount",
          "type": "uint256"
        }
      ],
      "name": "transferCurvesToken",
      "outputs": [],
      "stateMutability": "nonpayable",
      "type": "function"
    },
    {
      "inputs": [
        {
          "internalType": "address",
          "name": "owner_",
          "type": "address"
        }
      ],
      "name": "transferOwnership",
      "outputs": [],
      "stateMutability": "nonpayable",
      "type": "function"
    },
    {
      "inputs": [
        {
          "internalType": "address",
          "name": "curvesTokenSubject",
          "type": "address"
        },
        {
          "internalType": "address",
          "name": "caller",
          "type": "address"
        },
        {
          "internalType": "bytes32[]",
          "name": "proof",
          "type": "bytes32[]"
        }
      ],
      "name": "verifyMerkle",
      "outputs": [],
      "stateMutability": "view",
      "type": "function"
    },
    {
      "inputs": [
        {
          "internalType": "address",
          "name": "curvesTokenSubject",
          "type": "address"
        },
        {
          "internalType": "uint256",
          "name": "amount",
          "type": "uint256"
        }
      ],
      "name": "withdraw",
      "outputs": [],
      "stateMutability": "nonpayable",
      "type": "function"
    }
  ],
  "bytecode": "0x608060405260006004553480156200001657600080fd5b506040516200b02e3803806200b02e83398181016040528101906200003c91906200037b565b620000707f74e7f17bdf2dee5187b97e95caa2efa63d4dfba3db3068d9fcb9cf8652bb137b60001b6200035e60201b60201c565b620000a47f49f70d99e08c1d1eb63178e5551a70f38b0622f666d38106946d9c078c1633b660001b6200035e60201b60201c565b620000d87f1368ff9ab92b3194be9ea5d89f8e39ed78ec009f97052ea82fcec20efa3ce82360001b6200035e60201b60201c565b336000806101000a81548173ffffffffffffffffffffffffffffffffffffffff021916908373ffffffffffffffffffffffffffffffffffffffff1602179055506200014c7f3cf68a010911603c9b3554dd18a8cbbf79222e0a2b8408f1f01425d4bd643a6860001b6200035e60201b60201c565b620001807f271ffb2a1270c270aab9d5cfc8e23cb78503a8b47a05d84350f1c5fe7adee59660001b6200035e60201b60201c565b60011515600160003373ffffffffffffffffffffffffffffffffffffffff1673ffffffffffffffffffffffffffffffffffffffff16815260200190815260200160002060009054906101000a90505050620002047ff0546fa9bbee15467e34738c8f805cd352ac11a9a5a0240c4206416f7708c05e60001b6200036160201b60201c565b620002387f18ecfaea20b2cc5576285cde701cc45617bc14a1e62bd87b2e0630941eddaa0060001b6200036160201b60201c565b6200026c7f6b7800a1077c2bd7fcb9ed05da6822c0fdda7df076057f5afd7fe0377221c22b60001b6200036160201b60201c565b81600260006101000a81548173ffffffffffffffffffffffffffffffffffffffff021916908373ffffffffffffffffffffffffffffffffffffffff160217905550620002e17f04e443eace6da95b5aebfc3663894cdadc81e39ca33f5c6d6f99f3172a78f0ce60001b6200036160201b60201c565b620003157f5ae7a78ace795d3ae0afa1f4bf3308af2eddf19e834c513e1cfbf5dc915bc5b060001b6200036160201b60201c565b80600360006101000a81548173ffffffffffffffffffffffffffffffffffffffff021916908373ffffffffffffffffffffffffffffffffffffffff160217905550505062000415565b50565b50565b6000815190506200037581620003fb565b92915050565b60008060408385031215620003955762000394620003f6565b5b6000620003a58582860162000364565b9250506020620003b88582860162000364565b9150509250929050565b6000620003cf82620003d6565b9050919050565b600073ffffffffffffffffffffffffffffffffffffffff82169050919050565b600080fd5b6200040681620003c2565b81146200041257600080fd5b50565b61ac0980620004256000396000f3fe6080604052600436106102515760003560e01c80638d7b0ea511610139578063d316223c116100b6578063e78267da1161007a578063e78267da14610910578063f2fde38b1461092c578063f3fef3a314610955578063f516b8791461097e578063f518fbdd146109a7578063fdff9b4d146109d057610251565b8063d316223c14610801578063d43761df14610840578063d4bbdebd1461087d578063d5a06d4c146108a6578063e1d27f4d146108e757610251565b80639b8744b3116100fd5780639b8744b31461072b578063a5e90eee14610747578063b3a842ff14610770578063c233d5a7146107ad578063ca71a92b146107d857610251565b80638d7b0ea5146106325780638da5cb5b1461066f578063946641761461069a57806398c69648146106c35780639ae71781146106ee57610251565b8063440bc7f3116101d25780634da4708c116101965780634da4708c146105215780634e291a761461054a5780635cf4ee911461057a5780636a627842146105b75780637c57222d146105e057806380ea9d571461060957610251565b8063440bc7f31461042c5780634635256e1461045557806347e7ef24146104925780634bcaad0b146104bb5780634cded95c146104f857610251565b806325272fa61161021957806325272fa61461035257806328eb60f01461037b5780632927d3e8146103a65780632f4e0601146103e557806340e277bb1461040157610251565b80630928c577146102565780630a70c5e1146102725780630f026f6d1461029b57806316593dcf146102d85780632267a89c14610315575b600080fd5b610270600480360381019061026b9190619e0c565b610a0d565b005b34801561027e57600080fd5b506102996004803603810190610294919061a125565b610c37565b005b3480156102a757600080fd5b506102c260048036038101906102bd9190619e0c565b610fa3565b6040516102cf919061a5db565b60405180910390f35b3480156102e457600080fd5b506102ff60048036038101906102fa9190619be5565b61110e565b60405161030c919061a5db565b60405180910390f35b34801561032157600080fd5b5061033c60048036038101906103379190619e0c565b611126565b604051610349919061a5db565b60405180910390f35b34801561035e57600080fd5b5061037960048036038101906103749190619e0c565b611291565b005b34801561038757600080fd5b50610390611817565b60405161039d919061a559565b60405180910390f35b3480156103b257600080fd5b506103cd60048036038101906103c89190619be5565b61183d565b6040516103dc9392919061a596565b60405180910390f35b6103ff60048036038101906103fa9190619ebb565b611997565b005b34801561040d57600080fd5b50610416611c15565b604051610423919061a3f2565b60405180910390f35b34801561043857600080fd5b50610453600480360381019061044e9190619fd5565b611c3b565b005b34801561046157600080fd5b5061047c60048036038101906104779190619e0c565b61202c565b604051610489919061a5db565b60405180910390f35b34801561049e57600080fd5b506104b960048036038101906104b49190619e0c565b612103565b005b3480156104c757600080fd5b506104e260048036038101906104dd9190619c3f565b612879565b6040516104ef919061a5db565b60405180910390f35b34801561050457600080fd5b5061051f600480360381019061051a9190619e0c565b61289e565b005b34801561052d57600080fd5b5061054860048036038101906105439190619cee565b612b1e565b005b34801561055657600080fd5b5061055f612cc9565b6040516105719695949392919061a4dd565b60405180910390f35b34801561058657600080fd5b506105a1600480360381019061059c919061a0e5565b612d13565b6040516105ae919061a5db565b60405180910390f35b3480156105c357600080fd5b506105de60048036038101906105d99190619be5565b612fd5565b005b3480156105ec57600080fd5b506106076004803603810190610602919061a0a5565b613710565b005b34801561061557600080fd5b50610630600480360381019061062b9190619be5565b613a50565b005b34801561063e57600080fd5b5061065960048036038101906106549190619be5565b613f23565b604051610666919061a3f2565b60405180910390f35b34801561067b57600080fd5b50610684613f56565b604051610691919061a3f2565b60405180910390f35b3480156106a657600080fd5b506106c160048036038101906106bc9190619c7f565b613f7a565b005b3480156106cf57600080fd5b506106d8614162565b6040516106e5919061a574565b60405180910390f35b3480156106fa57600080fd5b5061071560048036038101906107109190619e0c565b61419b565b604051610722919061a5db565b60405180910390f35b61074560048036038101906107409190619f5a565b61427d565b005b34801561075357600080fd5b5061076e60048036038101906107699190619d41565b6148fd565b005b34801561077c57600080fd5b506107976004803603810190610792919061a002565b614a90565b6040516107a4919061a3f2565b60405180910390f35b3480156107b957600080fd5b506107c2614ad9565b6040516107cf919061a574565b60405180910390f35b3480156107e457600080fd5b506107ff60048036038101906107fa9190619c3f565b614b12565b005b34801561080d57600080fd5b5061082860048036038101906108239190619be5565b614d87565b6040516108379392919061a5f6565b60405180910390f35b34801561084c57600080fd5b5061086760048036038101906108629190619c3f565b614db1565b604051610874919061a5db565b60405180910390f35b34801561088957600080fd5b506108a4600480360381019061089f9190619be5565b614dd6565b005b3480156108b257600080fd5b506108cd60048036038101906108c8919061a04b565b614f5a565b6040516108de95949392919061a62d565b60405180910390f35b3480156108f357600080fd5b5061090e60048036038101906109099190619d81565b61520b565b005b61092a60048036038101906109259190619e4c565b6157d5565b005b34801561093857600080fd5b50610953600480360381019061094e9190619be5565b615d36565b005b34801561096157600080fd5b5061097c60048036038101906109779190619e0c565b615eb9565b005b34801561098a57600080fd5b506109a560048036038101906109a09190619be5565b616a0f565b005b3480156109b357600080fd5b506109ce60048036038101906109c9919061a04b565b616b93565b005b3480156109dc57600080fd5b506109f760048036038101906109f29190619be5565b616e43565b604051610a04919061a53e565b60405180910390f35b610a397f104ddbe4be20fba8766dcaf46c1d1ebfc2fe405a60e5a80568e422cddc4f5b7d60001b616e63565b610a657f3a17631b10b8e3479e4666e6e65fdcc7435880cf858e1854f6be4359e248e90e60001b616e63565b610a917f71bd1366eeaa20ef6cbb9bad925c9f84e17e604ac1219c9e8092f1acfdb3689d60001b616e63565b6000600660008473ffffffffffffffffffffffffffffffffffffffff1673ffffffffffffffffffffffffffffffffffffffff168152602001908152602001600020600001549050610b047ffbc1f103f9fdc80b6fab49f21c502b66e414706c68a393343045f8b8e571e1c860001b616e63565b610b307fa11e72cebace0e2c2a3b4b7a35f16cb7cc184f01b08ebe182c4d6c6d55397b8c60001b616e63565b60008114158015610b415750428110155b15610ba457610b727f3340b1e81d2052fc6b3e648ab1652d1aa34a24bef7339006c6685efd8bddd9f960001b616e63565b6040517f445dce4c00000000000000000000000000000000000000000000000000000000815260040160405180910390fd5b610bd07f3c5c9ebefe8fa27c5cef965b1f63364c0584268388d8c6fe022defa56624e20160001b616e63565b610bfc7f747c57d89ed5c2da041a2bdc0ca0ed78eaeb81a9dada5f8a008e7119433a4a1860001b616e63565b610c287fbd8b8990728770843e15a1b095688d0c8a89b0ccbb7fd011a1e8ec11d1ed26ec60001b616e63565b610c328383616e66565b505050565b610c637ff70e523a18e5e56509c660f9f75f9cfa0c3744040728ef2b1aca3b24e2c5c53b60001b6175b9565b610c8f7fd2a7fc3653d8f28a1991c495906547529c48d31d0ee1907e5263da1036033d7360001b6175b9565b610cbb7f3b7a0008dbe54fb81ee489f850789e1489231c0f0313e965a5b8695a8a615dd960001b6175b9565b60011515600160003373ffffffffffffffffffffffffffffffffffffffff1673ffffffffffffffffffffffffffffffffffffffff16815260200190815260200160002060009054906101000a90505050610d377f092fb8c21b140f5d8b11a9b28bc3e38a03aa5af1ec9fdec353ae58620212800460001b6175b9565b610d637f3541bf9d3e0501b86b2a26aab269cb2285180a48b789da7ce431b72ff6179eca60001b616e63565b610d8f7f37ed219fa1f278768793392efa4286c06412538d261d70f15ddad60459690ccc60001b616e63565b610dbb7fda421215e9a3b2dd5f78e21a90fd9371c9c4ef644c44167db9f51a603430506260001b616e63565b600960050154818385600960010154610dd4919061a749565b610dde919061a749565b610de8919061a749565b1115610e4c57610e1a7f5eb4f6e3e0d314bff456f4da3d49babfda10d0396adfad6d7b518b6f010cc45060001b616e63565b6040517fb7f141f600000000000000000000000000000000000000000000000000000000815260040160405180910390fd5b610e787f5e87e9ed5305238912632bea8d6e371208e20389c0906308aa00429a28c9f9be60001b616e63565b610ea47fadb32d85209c033c628bb22bada5697920fb7c0eb1d321e622f3f7f9b6e04cf260001b616e63565b610ed07f6ccaaee142754633efcb2efe7ed326319e5c460316a324fd7ccb69b4cab13ab060001b616e63565b82600960020181905550610f067facf446e599910a807b0d1fc72c693b737d3ec94d67f8f10e067c9a8fd62a10b160001b616e63565b610f327fc4738e84ea5eb82db5025e2bbcaa3d7f605de4b7ffbc74fa271d1cb2d1c3e98a60001b616e63565b81600960030181905550610f687f3739eefe24b82ca96e624ccd5ad5c37fc528ce6da04850ec86b166c6905a55b760001b616e63565b610f947f1e50ac887068dce4cf82b15fbeeaf3053aea01dadc340506b266d6e9addf110960001b616e63565b80600960040181905550505050565b6000610fd17fbc71406f72b0a7cbca596be066d15c6da7682e5cc458155e9ad3dec0a71c2c3d60001b616e63565b610ffd7f91f60a0b29135496fda0f9a122026741127c6d335ec7415e8d66a1ab37ae256960001b616e63565b6110297f27fcc503dcba363ddc059172de41495ef18151feca7b6be3c503b7953d5a81e160001b616e63565b6000611035848461202c565b90506110637f41234095eff31e2a12c3d78291fe96d2ba953c211f8e594860394f5fabc519ee60001b616e63565b61108f7f0e988db9411190d58bfa60238cc4b110eee90078e885cdaa1a44d3b533514c2e60001b616e63565b600061109a82614f5a565b9450505050506110cc7f1f47357872eaa894ff405b8f09343b7e5f3a953935fa474fb7b0515c6f0a233860001b616e63565b6110f87fb3b57260806d0097fc8d42979edad91c94dad1713e0b60c24d50c2318dc8631360001b616e63565b8082611104919061a749565b9250505092915050565b60116020528060005260406000206000915090505481565b60006111547f3e4cf52ef113a2d512eee1dc002fca4bcc715bcdd828033ab194b4ca8785dffd60001b616e63565b6111807fe5fe4a7049cc69a1a728011b9a184a40612278658c5ae1bbc509ed22d875e48260001b616e63565b6111ac7f022cecbcc172a6fdbdf8cd06b2b64d33e71315e08e5ecc3d0b78b5ae768c6eb360001b616e63565b60006111b8848461419b565b90506111e67fb093734372e7622ed143c57776440a11e8dde1e9613640bbf7ce37f033f4408d60001b616e63565b6112127f9bc2377cb66d9b323feb99e595c62da400a6d535dd15d03ab5fd4901dbb7fc7e60001b616e63565b600061121d82614f5a565b94505050505061124f7f21332dbfb509575923201ec6d20573af17a40ca0a12046409144cea77a22894360001b616e63565b61127b7fc21fc27e45b864582d3161662a7e4dacd4d3c1848833a9e29e4f8f969b6d492160001b616e63565b8082611287919061a82a565b9250505092915050565b6112bd7fe339a2b351eb23e99b89230bccef2a433b0070fa9a2430f5e46e0bd74d7807ed60001b616e63565b6112e97fb9aedcdd8c8cad82439d38ac114f04f5c57e43e6df19d7b6988505d3519b42eb60001b616e63565b6113157ff98019f54d1dd267bd53d82ec7f1bff4a9bb22e430823673269591cd4c7ea85160001b616e63565b6000601160008473ffffffffffffffffffffffffffffffffffffffff1673ffffffffffffffffffffffffffffffffffffffff1681526020019081526020016000205490506113857fe4fb2a1ba5c82fa7df2e77bf081a9da0b9e6353f40441ea3db7a13e7c650623060001b616e63565b6113b17f4d700be81ea59e5a8780efb74ab261cc2efb31d044ab49efc3039a8f22e8701860001b616e63565b818111611416576113e47f60a1f3b9e8333745be9d084006dbad16c23d2e15e05f8316768cab34c446c44d60001b616e63565b6040517f638b858200000000000000000000000000000000000000000000000000000000815260040160405180910390fd5b6114427f663d4c94562c99595b33a445b9a9a440335d070b8119afd0d92c9896c353b9e760001b616e63565b61146e7ff746f86776b1d569f2cdc4c3f9098ec8116fb8f61581580ef0b28aa9b9576ee160001b616e63565b61149a7f31a58252153fda63b5ac184d4f994a1dc8fc4a19ff1fae16c20291e9257a925960001b616e63565b81601060008573ffffffffffffffffffffffffffffffffffffffff1673ffffffffffffffffffffffffffffffffffffffff16815260200190815260200160002060003373ffffffffffffffffffffffffffffffffffffffff1673ffffffffffffffffffffffffffffffffffffffff16815260200190815260200160002054101561157c5761154a7f53a1c82371a6c42b4eb68f72361018c56b06f4edcfe8f6770910298e93ec261c60001b616e63565b6040517ff4d678b800000000000000000000000000000000000000000000000000000000815260040160405180910390fd5b6115a87f1d12f6871b56d4197c57c7b7d350ba6539fa1c5c5faa124a3ced32b50ba1c18160001b616e63565b6115d47fbac1a5269338f127559c8bccd76128f926dfbacb1933b7db2bc3c8c5aa216af360001b616e63565b6116007fbee157b1f821f420cf38dfcc2f7f47973b9eb71e049e5fb2e0d16be5308f721f60001b616e63565b60006116178383611611919061a82a565b84612d13565b90506116457f6263483b3bd0348a4fb3a8e619e219fc28e6d70e38f58becc44707747a82d22c60001b616e63565b6116717f7d63ac10c188560404c4f2153cc2f93c1e1d59ee2b882f3f0aacdd3b928e849d60001b616e63565b82601060008673ffffffffffffffffffffffffffffffffffffffff1673ffffffffffffffffffffffffffffffffffffffff16815260200190815260200160002060003373ffffffffffffffffffffffffffffffffffffffff1673ffffffffffffffffffffffffffffffffffffffff16815260200190815260200160002060008282546116fd919061a82a565b925050819055506117307f3b1bb28c30369bf27680164b8c2cd4e9bbb995e232729be0ab20e59ec797706460001b616e63565b61175c7f02f85bab5e69648d35b074377f997ab0844c171dd8a043f85e8dc27f94d2e59760001b616e63565b8282611768919061a82a565b601160008673ffffffffffffffffffffffffffffffffffffffff1673ffffffffffffffffffffffffffffffffffffffff168152602001908152602001600020819055506117d77f07026ab9fe25feec524506ad1b872773f6055c58d229516e7a306de40ee8283a60001b616e63565b6118037f2a56210abab08855adff8722580773064d8eddec9acaca944116fb95aa59a73a60001b616e63565b6118118460008386866175bc565b50505050565b600360009054906101000a900473ffffffffffffffffffffffffffffffffffffffff1681565b60056020528060005260406000206000915090508060000180546118609061a928565b80601f016020809104026020016040519081016040528092919081815260200182805461188c9061a928565b80156118d95780601f106118ae576101008083540402835291602001916118d9565b820191906000526020600020905b8154815290600101906020018083116118bc57829003601f168201915b5050505050908060010180546118ee9061a928565b80601f016020809104026020016040519081016040528092919081815260200182805461191a9061a928565b80156119675780601f1061193c57610100808354040283529160200191611967565b820191906000526020600020905b81548152906001019060200180831161194a57829003601f168201915b5050505050908060020160009054906101000a900473ffffffffffffffffffffffffffffffffffffffff16905083565b6119c37fcd9c10fa4fb37604606ccb77c13476542853cb77700617aef67cb0cb2dc2b69960001b616e63565b6119ef7f8d57517021c033c144818190b559de054ff7c25f8e7c20248e5e9a8ae6ab2b4d60001b616e63565b611a1b7f04d6f31a8d4270d8f4a11d60181864cc92fb88a81c5656f78a93c048674ad1ca60001b616e63565b6000601160008673ffffffffffffffffffffffffffffffffffffffff1673ffffffffffffffffffffffffffffffffffffffff168152602001908152602001600020549050611a8b7f3c3aaee407feb7492f1a48059c1a33a2283ab5f08e572af886384f1ac580e9f960001b616e63565b611ab77fd4f8f8db5edb34edb9be15b1cbb9d5e59e7a418dacab9d6cfdfeb91a45f4934d60001b616e63565b60008114611b1d57611aeb7fd9b32f24110a0fa0106ae0e3c90b30632f3bf4544d79730682bd9eadb236340b60001b616e63565b6040517f1248f6d900000000000000000000000000000000000000000000000000000000815260040160405180910390fd5b611b497fad07d436b2d0bb19d1dadaf0c092d45ff15a85287a4559ee8d4d758a270cd1af60001b616e63565b611b757f12454a334a4d119412646eae72beddc680f5d2cfbe48b7414f61dc8df4544e1c60001b616e63565b611ba17fa1fbb093adb615c8fba3818e2f1cbc984051e0f89dc51b52c981a118d5ebc31e60001b616e63565b611bab8585616e66565b611bd77fa51e5219242309b71db0866ec51fd9dd9c3a3f46e9df2947b55ee1fd97a73ffd60001b616e63565b611c037feac5a9701268944c7b8fb23e09c3e1197f1ce39c2ca1a3bc60a9013a5266339960001b616e63565b611c0e8584846182c4565b5050505050565b600260009054906101000a900473ffffffffffffffffffffffffffffffffffffffff1681565b611c677fa94f5fc861133f14ba55d130615d416efb25f2c8af3d219f09c2807eefcbd62d60001b616e63565b611c937fd1ced043c994aa705c3888b1bdcab3571c08395ff1cf4b838ddf132a82adcf0060001b616e63565b611cbf7f84c5b10afbe95838c6078a022bab25b97a863ef7513ee062170f244f8b44325860001b616e63565b6000601160003373ffffffffffffffffffffffffffffffffffffffff1673ffffffffffffffffffffffffffffffffffffffff168152602001908152602001600020549050611d2f7f07b3baa29c88a2b2c2866c6ca0d6057272bedb9166fe0099d354fbe85632a84d60001b616e63565b611d5b7f1f3ec41ad6e3825f3dfd12fff47d909ce92a8d0c497d295f1ea3466a6efc704760001b616e63565b6001811115611dc257611d907f70ecc477662750c6f561d6c7947c003afcfc9b86ae44fd04c690fd3f072eebb360001b616e63565b6040517f1248f6d900000000000000000000000000000000000000000000000000000000815260040160405180910390fd5b611dee7f09172e5a5988ea12526dcf92c7b4be9c45f3309bd15fa842ee281e33f6b799a960001b616e63565b611e1a7f260daf2d63563a6e610a9015affb5e19daf5b94a130c95ca9b578588432adf8b60001b616e63565b611e467fbb58d4f90ce7387763e1cd9fbb1e4f94195a12c34c48b86add4d61446be8a8c960001b616e63565b81600660003373ffffffffffffffffffffffffffffffffffffffff1673ffffffffffffffffffffffffffffffffffffffff1681526020019081526020016000206001015414611ffb57611ebb7f80fc8d95dc90e6effc615d91661e9995ec9a39249faa1614d00cb260fd9d361a60001b616e63565b611ee77faf5d1a73e9ac8c4448eba6287514f645bc8b9ab8b9cbc3bed2a68dc71d6c318160001b616e63565b611f137f4a3ed3103751be267845e088ca4db03415d5d38f82d43dd858f17b00c9c3b21a60001b616e63565b81600660003373ffffffffffffffffffffffffffffffffffffffff1673ffffffffffffffffffffffffffffffffffffffff16815260200190815260200160002060010181905550611f867f98952e0d3b3fadfce4efffe32b98ece5df61df35b789c3c1269281e7f51dd03360001b616e63565b611fb27f17d9aacd1fd69a8a3b2380cea3d4fd14774919bd3494b8ef0f76d5a773f80e7960001b616e63565b813373ffffffffffffffffffffffffffffffffffffffff167f363eed7cdb0d83be2ee8f8cf5a381a307c10791386e57a7dd427cd0763017d3360405160405180910390a3612028565b6120277f32f54736f4273eef2f671b4f74a5574ab79fdd2c6c3c819968a5be3610935c6a60001b616e63565b5b5050565b600061205a7fe5e1ff3dfcfb446231204de5aab42cc1e4369874145eec5860560f86bb3f2f8660001b616e63565b6120867f668c9713b7699e823f9da41994772acd3f48fe80a8565213406f19613989f4e760001b616e63565b6120b27ffec14a26047f9d3fcd789bce90febefcd6422eabe228491dd468e5c3a426a14660001b616e63565b6120fb601160008573ffffffffffffffffffffffffffffffffffffffff1673ffffffffffffffffffffffffffffffffffffffff1681526020019081526020016000205483612d13565b905092915050565b61212f7fab4ea8ca3e38fbb80166583acbe668b630db9b602aceef4ca41171e827e98bba60001b616e63565b61215b7f1b03499f4c9b6e594ace9b4613b13c61856fccc84c63d374f9b5659b159ffd1460001b616e63565b6121877f994402ad9c4ff138f69e14bffd130b6258c5e6041848927520518ffb3e00ea9260001b616e63565b6000670de0b6b3a76400008261219d919061a9f8565b14612200576121ce7f946fd7246631bb5dc4df9ac6a98dbe745e6cd3e8a05f608b36367d6bcb5348f760001b616e63565b6040517f0c3f64b000000000000000000000000000000000000000000000000000000000815260040160405180910390fd5b61222c7f37a261e90ea280596dd8be79f844bd8a383f78e0d6207b94966d97413c5bca9560001b616e63565b6122587fbda1a58e673855a1c937cdfb9641dfa64cf61d0bbdf0ac872a050430dc17523860001b616e63565b6122847f7d8403ed9cdebaaa1c4f9fe1361fa1264b2b90f8a7816ada48586d94b69bb2dc60001b616e63565b6000600560008473ffffffffffffffffffffffffffffffffffffffff1673ffffffffffffffffffffffffffffffffffffffff16815260200190815260200160002060020160009054906101000a900473ffffffffffffffffffffffffffffffffffffffff1690506123177ff4b599cf7fa1166436ef3191a915635be9e4c5a85cac324089a3b81b77c80b1360001b616e63565b6123437f415a68130c8756d5ac3e3e626b32f4804b27193481b146782776d21bc159378d60001b616e63565b6000670de0b6b3a764000083612359919061a79f565b90506123877fe1cde1953f22b53a693fe49417cac0a96d861d03ed0390698934ffc0524c3ca760001b616e63565b6123b37f47a30dde5b979f828efc5b5bf938be9e13a741ed5c5f0011f163e987d145b93060001b616e63565b600073ffffffffffffffffffffffffffffffffffffffff168273ffffffffffffffffffffffffffffffffffffffff161415612446576124147fb5d99d9e7aeb0763e5a6e80f16c0c06a7dfb5b3a898567c9b5ea9d0759abf73960001b616e63565b6040517f5fbb48f200000000000000000000000000000000000000000000000000000000815260040160405180910390fd5b6124727f7a870e94a132cb9d1ef9a69eba1632c7632eb0c783918c0b91ea4057a15ba34960001b616e63565b61249e7fe2ef45cae74b68b0b09fb70a6fe9ba2cd30a3488a737d804ab75a2006a436bbc60001b616e63565b6124ca7f6c3dc36803ca5c5766fb9448d283c0fbd693aec217f6c5a86b625b77a4590a1f60001b616e63565b8173ffffffffffffffffffffffffffffffffffffffff166370a08231336040518263ffffffff1660e01b8152600401612503919061a3f2565b60206040518083038186803b15801561251b57600080fd5b505afa15801561252f573d6000803e3d6000fd5b505050506040513d601f19601f82011682018060405250810190612553919061a078565b8311156125b8576125867f73f85e3193eee76d1bf471c0633bfef65791cf696c182a47b137de8a8dd4af4a60001b616e63565b6040517ff4d678b800000000000000000000000000000000000000000000000000000000815260040160405180910390fd5b6125e47f658c7beebcd7da6ebe521f95e9476eb66bab3e570b9905d6b948d21d7a098f6c60001b616e63565b6126107ff14cd2f2c280b18178e9dffa59d582e23720073e1b15efea5e7f8b27c678715f60001b616e63565b61263c7f4e5dbc5ac076d075776441db543a5065ec1b3a794048a2800755d9757919ded560001b616e63565b601060008573ffffffffffffffffffffffffffffffffffffffff1673ffffffffffffffffffffffffffffffffffffffff16815260200190815260200160002060003073ffffffffffffffffffffffffffffffffffffffff1673ffffffffffffffffffffffffffffffffffffffff1681526020019081526020016000205481111561271e576126ec7f4af77c62c38e404e3ad948d4bacfc9a2a7232a7a696cfbb180736368bea007f160001b616e63565b6040517ff4d678b800000000000000000000000000000000000000000000000000000000815260040160405180910390fd5b61274a7ff208b615a12347021bc64b0f9a498141f4fa42b5ee12b4a3b07ffcca11be344960001b616e63565b6127767f4f7af637a0116c530dd25d317c3628a4792d46947bf3a4f19c662d5bc1b5ec9460001b616e63565b6127a27fababab46f441e8dfb0d65e609e61b3275502fd416b175f1c1c11f3b64eaf1f9460001b616e63565b8173ffffffffffffffffffffffffffffffffffffffff16639dc29fac33856040518363ffffffff1660e01b81526004016127dd92919061a4b4565b600060405180830381600087803b1580156127f757600080fd5b505af115801561280b573d6000803e3d6000fd5b5050505061283b7f8deebddda4dbbe0fd1c8abcbe05dd767ee7f61a936acde9809acfb7f484d8a5460001b616e63565b6128677f028d730cca5b09e42f6ac644f4b48866077b5f08b5e161cd48962873db9b05fb60001b616e63565b612873843033846186be565b50505050565b6010602052816000526040600020602052806000526040600020600091509150505481565b6128ca7f9604d4416347152dfec184b7a4ef918eb56d79709ac327f60dda0218e2ef80ed60001b616e63565b6128f67ff907a18dc21042c4d362350bb7e8542f9854a62589854ed61e424c790dfa949360001b616e63565b6129227ffa59221fe3febae1b15500c7784695b61285657a2d8b6f5f1c4c2151108d1e6260001b616e63565b600073ffffffffffffffffffffffffffffffffffffffff16600560008473ffffffffffffffffffffffffffffffffffffffff1673ffffffffffffffffffffffffffffffffffffffff16815260200190815260200160002060020160009054906101000a900473ffffffffffffffffffffffffffffffffffffffff1673ffffffffffffffffffffffffffffffffffffffff161415612a17576129e57f6c219c8d4d224953e3a3f19266c06593711b8527d0196fa2d7b9ef8cb80e774d60001b616e63565b6040517f5fbb48f200000000000000000000000000000000000000000000000000000000815260040160405180910390fd5b612a437f092b803b9a3926fe7a3bb2eed44174f39c3947466527c379cddd21a3430f526d60001b616e63565b612a6f7f8206ec9959b69e3e739f9c5bc5647eeb825b39d5377a43bbf812d9d5ff0c5ce960001b616e63565b612a9b7fc69971cfbf1a14fcfbfc2d2f102993dd77634cd631fadcdb71238fc72a00e28460001b616e63565b612aa58282612103565b612ad17f5f75ebf3a542d121ee97e5faf9090d8fbfc6b46f3a4153686e566f56a44206bd60001b616e63565b612afd7f993a910c579670295c14fbc1ad98881b37073deb2cda2fd37e5b0c67b5bd7ae960001b616e63565b612b1a82670de0b6b3a764000083612b15919061a79f565b611291565b5050565b612b4a7feda6c518d21d7d439419beb1fbf996a2aa2a1ad73665929d6472dc04e92b8c6760001b616e63565b612b767f1de1864c618559ed670788be2bc5afaf24347683a303265d5c9230c28fefde9160001b616e63565b612ba27f751d31c0f1ae091f6bff2d3929f445e1a5f1c69fa2dff39be74c06248e326d0260001b616e63565b3073ffffffffffffffffffffffffffffffffffffffff168273ffffffffffffffffffffffffffffffffffffffff161415612c3457612c027fbb847bdfe0499e256e235a5e323954d7535837ec42182bf5df878cb27a72737360001b616e63565b6040517f10fa696100000000000000000000000000000000000000000000000000000000815260040160405180910390fd5b612c607f9c30aa2275524ff545fc12a6ca0966a0084ef29c110429d7a315645dff80664d60001b616e63565b612c8c7ff410540bb5284be53303350c5b03568c30c0a16d27b20a9b3b34e4a557c215c360001b616e63565b612cb87f1b6f50aa38ccd9363be9f384aa1a4a31445e4e957288f7cb427df87bcfc4eb9c60001b616e63565b612cc4833384846186be565b505050565b60098060000160009054906101000a900473ffffffffffffffffffffffffffffffffffffffff16908060010154908060020154908060030154908060040154908060050154905086565b6000612d417f7e62be86919b83e13105ddd87228e255dd0c434c0b15eb5ba19f04f332852f8060001b616e63565b612d6d7ff0241134da932e44fc6a394324ab83613976b84e68bab5c7d013e069564fcd0360001b616e63565b612d997f9d5a4cb9647925630fd2d608b177bf1f9e4e5ad6af7d9ea18ac1d233c1881c0760001b616e63565b6000808414612df957600660018086612db2919061a82a565b6002612dbe919061a7d0565b612dc8919061a749565b85600187612dd6919061a82a565b612de0919061a7d0565b612dea919061a7d0565b612df4919061a79f565b612dfc565b60005b9050612e2a7f1510dc58b2b783039279db00cd3e71e8dcc6aed791ff0d6578cb0c8becec4ba160001b616e63565b612e567f4e5495535d69239979f840d9bb3f4317336a56da1ca16d15a71dbd29de49f90b60001b616e63565b60008085148015612e675750600184145b612ee4576006600185600188612e7d919061a82a565b612e87919061a749565b6002612e93919061a7d0565b612e9d919061a749565b8587612ea9919061a749565b86600189612eb7919061a82a565b612ec1919061a749565b612ecb919061a7d0565b612ed5919061a7d0565b612edf919061a79f565b612ee7565b60005b9050612f157fc6d9de3ab673df85e2c147e4b215738ba603cddf1280e8adaed041224967a47e60001b616e63565b612f417f797c0ff9ecea2598f2546e26accaaa46d311662f91bc1200479eb57cb9f55b9e60001b616e63565b60008282612f4f919061a82a565b9050612f7d7f60773605980335c0b0e7e817ce7f93a81b4a048c5da91050dadd2e6ff0ed74ff60001b616e63565b612fa97f378af86aca88e895fe60b2516188ca559bf8e7fbd72b1ab6997a371ecb401c5160001b616e63565b613e80670de0b6b3a764000082612fc0919061a7d0565b612fca919061a79f565b935050505092915050565b806130027fe2da3c8be1756550149afcdca89a862da2c381191b0689bd6bfbeb045c93694e60001b616e63565b61302e7f9fe924dc8e1430b445843b45af46e7352f5ceff89345ad9a8fc1b848b5b77b0160001b616e63565b61305a7ff62216daf7691ca02b2018fb5cfae2b7aa18391d709ed68936314d265ed2ac4060001b616e63565b3373ffffffffffffffffffffffffffffffffffffffff168173ffffffffffffffffffffffffffffffffffffffff16146130eb576130b97f49944c572b375e66475d608dc873b8535b9d18d59450e3e2e0d247d942487d5b60001b616e63565b6040517f39e7619900000000000000000000000000000000000000000000000000000000815260040160405180910390fd5b6131177f2d7737cfd2b213bcf63007343498f920bb8b7d24b241debf88b16b89766b173f60001b616e63565b6131437f15d9c2b277b48e4ef7df7e8fc0f842a4b504b75f12bc58e278d6041bc40e280160001b616e63565b61316f7faf3fd15e726be826c58bf40726012acc16db047cf230fe874cf0b01474fdba6160001b616e63565b61319b7fd7efc4ac03b1d0d8d0c5e72454bca69bee97b565b3338d6c691e5715569fdf0860001b616e63565b6131c77fa37011802ab20b97f50983d88fcd55273e1296b1a120c1f8c49a7cfc8bee982960001b616e63565b6040516020016131d69061a3dd565b60405160208183030381529060405280519060200120600560008473ffffffffffffffffffffffffffffffffffffffff1673ffffffffffffffffffffffffffffffffffffffff16815260200190815260200160002060000160405160200161323e919061a3b1565b6040516020818303038152906040528051906020012014806132ea575060405160200161326a9061a3dd565b60405160208183030381529060405280519060200120600560008473ffffffffffffffffffffffffffffffffffffffff1673ffffffffffffffffffffffffffffffffffffffff1681526020019081526020016000206001016040516020016132d2919061a3b1565b60405160208183030381529060405280519060200120145b156134e85761331b7fc26d64e7a0a2a3647338498034a4c93a49098ce0054120e73c4d20a2275f579960001b616e63565b6133477f9cbf51d9335ef978f836e2092c640dd12d96d717baade61cfb269abdfef1aa3960001b616e63565b6133737fdc3f574ca420dfeab155d5aa8b55a05054d47e0088a0561daceb1165ceaca32e60001b616e63565b6040518060400160405280600b81526020017f437572766573546f6b656e000000000000000000000000000000000000000000815250600560008473ffffffffffffffffffffffffffffffffffffffff1673ffffffffffffffffffffffffffffffffffffffff16815260200190815260200160002060000190805190602001906133fe9291906199b6565b5061342b7fbaa246b1d0a66435bf413a8f780b72e993dde9730dad14867ffb30dc7a725d1e60001b616e63565b6134577fb8e6ef4e78c7f118918efdb7a94d1b169b29e7e6838c09e6062183efd1b2677160001b616e63565b6040518060400160405280600681526020017f435552544f4b0000000000000000000000000000000000000000000000000000815250600560008473ffffffffffffffffffffffffffffffffffffffff1673ffffffffffffffffffffffffffffffffffffffff16815260200190815260200160002060010190805190602001906134e29291906199b6565b50613515565b6135147fb6572bb48913868d47eaf23215c54a081677d05866ca28af0a0d76f691af82e860001b616e63565b5b6135417f89436e1092d1e559e5db176141adff68ba544168d14c180e7c636b8dd9b1a34860001b616e63565b61356d7fb7bfb2841083612746640ff3b07709a8f1effd1fe1aa433d6a430b201cddf46b60001b616e63565b61370c82600560008573ffffffffffffffffffffffffffffffffffffffff1673ffffffffffffffffffffffffffffffffffffffff16815260200190815260200160002060000180546135be9061a928565b80601f01602080910402602001604051908101604052809291908181526020018280546135ea9061a928565b80156136375780601f1061360c57610100808354040283529160200191613637565b820191906000526020600020905b81548152906001019060200180831161361a57829003601f168201915b5050505050600560008673ffffffffffffffffffffffffffffffffffffffff1673ffffffffffffffffffffffffffffffffffffffff16815260200190815260200160002060010180546136899061a928565b80601f01602080910402602001604051908101604052809291908181526020018280546136b59061a928565b80156137025780601f106136d757610100808354040283529160200191613702565b820191906000526020600020905b8154815290600101906020018083116136e557829003601f168201915b50505050506182c4565b5050565b61373c7f4fcac04b723ddc84cbfaad6493c1263c75c4dcdad1e5be2fcc39bfd9d0c9aec960001b6175b9565b6137687fcca1c812385a9edd42ae2639345472fbc6fb3f2c45ac198c75dd2895eb8bbb3260001b6175b9565b6137947f8cb3d5655e4d5fa5bd2b1c69ba8e1e1ebf1b3dc7b5378bb14ad3458e75921eac60001b6175b9565b60008054906101000a9050506137cc7ff43bc64bed64941de2be64f3f60909fa9aa68e91e87bdf1b7aa0225ea419c7bb60001b6175b9565b6137f87fbdfe5c62a7d5b3fb0423dc83f610239dc17728506cb8f297541bb3d9f0dfe7c860001b616e63565b6138247f451516d8aea4a474405ac205c83ce8ad52422abdff6c7d62133e7e2b4181dd9260001b616e63565b6138507f4eb551b9b4252fab2f04b557ce404bdf11fe5d8bfc56df2694f29b2d40ec698d60001b616e63565b60096005015460096004015460096003015460096002015485613873919061a749565b61387d919061a749565b613887919061a749565b11806138bf5750600073ffffffffffffffffffffffffffffffffffffffff168173ffffffffffffffffffffffffffffffffffffffff16145b15613922576138f07f3c76745259193f0a3451ae927cc879ec0e37d3cb65fda9c769da6c070fcec49260001b616e63565b6040517fb7f141f600000000000000000000000000000000000000000000000000000000815260040160405180910390fd5b61394e7f0a4018c95e18f3889a5929dc56a251866cd8e00630776739302cbb8f3eb8819560001b616e63565b61397a7f9d9ae964fbc4aaea97a6ccefdf3a6680907d7101d9cba6120d606f717c79539760001b616e63565b6139a67f15eef97258f5ce38ce2ac2feb9580183763d470b7b279f09dfac8b771f945b8b60001b616e63565b816009600101819055506139dc7f97cd8ed7f9e22c60d8f5b5d41b8081e7f1630133eeea0b3ff68a31c73f5a76ba60001b616e63565b613a087fc1ff54b51b6a1f6275f794e3d9c6f130d5098d48af285baee215b03a9866093460001b616e63565b80600960000160006101000a81548173ffffffffffffffffffffffffffffffffffffffff021916908373ffffffffffffffffffffffffffffffffffffffff1602179055505050565b613a7c7f7990068c3236f9709859062dcf999f4e15c64fff64b8342eb42345585eb0e19760001b616e63565b613aa87f40b86dd7ae81517e9b3616576f47f0f20aa365dfe36a88c26de14fe6ae0f955160001b616e63565b613ad47fac9fd49ef62229aba9cf0ab06af6ba6aefbf0829bb984e4317dbfab321ae05df60001b616e63565b3073ffffffffffffffffffffffffffffffffffffffff168173ffffffffffffffffffffffffffffffffffffffff161415613b6657613b347fb927f4753701d50b8b4c9c372b858c029db26a3feb1d31d1bf6df8c54bc1a61c60001b616e63565b6040517f10fa696100000000000000000000000000000000000000000000000000000000815260040160405180910390fd5b613b927f0187c90a7da723f68a2b61133ecb945a150695f7b4f6696613b494f8f7678ad860001b616e63565b613bbe7f0171d4b4c22250681012cd6f4fa5637119bfe6d96faf021e0e7b552d64091fa660001b616e63565b613bea7f90594f261950d0458ee302b4666c39e21541a4224423b633747d6841ce61c55d60001b616e63565b6000601260003373ffffffffffffffffffffffffffffffffffffffff1673ffffffffffffffffffffffffffffffffffffffff1681526020019081526020016000209050613c597f6b0b42d665e0e8a19368e51476c05919cc99a4c7f3b843c1a41845b07ae308b060001b616e63565b613c857f823a5199068be88a73b5f29e0ecf51db720facd6ba73083b5e66c51023033f7760001b616e63565b60005b8180549050811015613f1e57613cc07f9314faf334e6f9cfa0628204003fdbc79ad2fb52d5b002996a8a52fb2522fe7160001b616e63565b613cec7fc5982727ea348a16620093ce8ffa05597e035a988185fde2b85f3bbff71723c760001b616e63565b600060106000848481548110613d0557613d0461aab6565b5b9060005260206000200160009054906101000a900473ffffffffffffffffffffffffffffffffffffffff1673ffffffffffffffffffffffffffffffffffffffff1673ffffffffffffffffffffffffffffffffffffffff16815260200190815260200160002060003373ffffffffffffffffffffffffffffffffffffffff1673ffffffffffffffffffffffffffffffffffffffff168152602001908152602001600020549050613dd67f287e7589425f264e4b7d369a9d409c672de4228903d77faebac55ae64abf74c860001b616e63565b613e027fcf76e49b13af50b846413989ca4dba19636c520e7a2e9bd34c20f5bee09c391060001b616e63565b6000811115613edd57613e377f2ed21e4b9aedbff5bf90383b073e183c3e9dfaba1c5777aa05c5f7c553c86a0160001b616e63565b613e637fb076724fd4ebc2413f4285ef7d6be7c8c5f3ea86fdca76f16ba933b0fef8793860001b616e63565b613e8f7ff48f208bfb3a2fb5986033271240ee08750d13c2892e5bca15096678e856a54b60001b616e63565b613ed8838381548110613ea557613ea461aab6565b5b9060005260206000200160009054906101000a900473ffffffffffffffffffffffffffffffffffffffff163386846186be565b613f0a565b613f097fd73e63ac8bf112bda0b619611599232967561394f5e2ce22adfcb9a1a7c7430460001b616e63565b5b508080613f169061a98b565b915050613c88565b505050565b600f6020528060005260406000206000915054906101000a900473ffffffffffffffffffffffffffffffffffffffff1681565b60008054906101000a900473ffffffffffffffffffffffffffffffffffffffff1681565b613fa67f89fd5afcc0e219dc9f8abab4b3d18415afd1facd1674ac71ad57037a880d40a260001b616e63565b613fd27f997c32e0618b5ab8afb82ff0f5c8d2fcb5285f5dc9a5fbd79a4abfe501ac18b860001b616e63565b613ffe7fb53d643ee4a332fded3bb97cdf2e3cc9e219a9b6533c4932de16836f9b7abeda60001b616e63565b600082604051602001614011919061a32c565b6040516020818303038152906040528051906020012090506140557f3a451f52c63cdf5b1114f5cc9bde5f2648f9e013d083bec829b08134bea0f64560001b616e63565b6140817fb82fd8dbe33a3ad366b5289a37393458e20eb393923976ee4b9f9c6d2d66975b60001b616e63565b6140ce82600660008773ffffffffffffffffffffffffffffffffffffffff1673ffffffffffffffffffffffffffffffffffffffff1681526020019081526020016000206001015483618d35565b614130576140fe7f1dc03537983186a7ca838d669d374f48b5dac4696763a85d8db94f14ca471d9660001b616e63565b6040517f99baf05000000000000000000000000000000000000000000000000000000000815260040160405180910390fd5b61415c7f82185e5bca1c5d9f317afaf84cb1ea31a7ad882ec59e4c9f09ea1bd6e9c12f6960001b616e63565b50505050565b6040518060400160405280600b81526020017f437572766573546f6b656e00000000000000000000000000000000000000000081525081565b60006141c97f924c2267f5b27838d3fe058c77d9fa4539515e6f71a480f8482d985d7163034360001b616e63565b6141f57f38a0273944b587d034f570556d9966e47b80c64caf5999594933cfabbd27e28360001b616e63565b6142217f721203df8b32d2316acb9e94e77473285bc75fbcb749531f4dad793e6309aa5660001b616e63565b61427582601160008673ffffffffffffffffffffffffffffffffffffffff1673ffffffffffffffffffffffffffffffffffffffff1681526020019081526020016000205461426f919061a82a565b83612d13565b905092915050565b846142aa7fe2da3c8be1756550149afcdca89a862da2c381191b0689bd6bfbeb045c93694e60001b616e63565b6142d67f9fe924dc8e1430b445843b45af46e7352f5ceff89345ad9a8fc1b848b5b77b0160001b616e63565b6143027ff62216daf7691ca02b2018fb5cfae2b7aa18391d709ed68936314d265ed2ac4060001b616e63565b3373ffffffffffffffffffffffffffffffffffffffff168173ffffffffffffffffffffffffffffffffffffffff1614614393576143617f49944c572b375e66475d608dc873b8535b9d18d59450e3e2e0d247d942487d5b60001b616e63565b6040517f39e7619900000000000000000000000000000000000000000000000000000000815260040160405180910390fd5b6143bf7f2d7737cfd2b213bcf63007343498f920bb8b7d24b241debf88b16b89766b173f60001b616e63565b6143eb7f15d9c2b277b48e4ef7df7e8fc0f842a4b504b75f12bc58e278d6041bc40e280160001b616e63565b6144177f4e95c48500e4d56dba0f7870084d6f72ee16c52fd059845c3bc988d5ec21c1dd60001b616e63565b6144437f0db5b070cae9f4a2ddd0d3e43af7565e7384c7b395cbc48d34b09fa5941792a960001b616e63565b61446f7f2d9644cf8698e18313ae7c17de8a1d919bc5b415a2b4cb12895846465a2d7c9160001b616e63565b4284116144d4576144a27f4a5d4102af58c8736a97c052e8d6b7040d643664e36bd4231ca94ac33a99a95860001b616e63565b6040517fa584fef300000000000000000000000000000000000000000000000000000000815260040160405180910390fd5b6145007f2732bdfd69eb027cec55a36a28d7f34165002cea30dcc7f12893aef65a523b3460001b616e63565b61452c7fd78e421901515658479cdff04965d0dc8aec1e4ede26b692561fddd990f1cd8c60001b616e63565b6145587f35fbfba5c80d1abc97f58429f47d84e8158ee6da4e7ab133d44ed12df4f1f49560001b616e63565b6000601160008873ffffffffffffffffffffffffffffffffffffffff1673ffffffffffffffffffffffffffffffffffffffff1681526020019081526020016000205490506145c87ff83d744ba3ebd1c6e4cfbd68c2bdd576f6980f57039148139dd3c6d9789f095060001b616e63565b6145f47ff0942e79c2cd6776b577a604aa8e5e25aa80b37ae736a7a2cc15c44286c4309860001b616e63565b6000811461465a576146287f2f0462e7e74bb2798ddef94daa4c47a2aa457ff8a66af688a934b34039e130ea60001b616e63565b6040517f1248f6d900000000000000000000000000000000000000000000000000000000815260040160405180910390fd5b6146867fafb8cfeb7efdd666594a12eb0d273f40b04460ab8a4e664d1e9faddf448486de60001b616e63565b6146b27f26cc25ef547ec77d3889157dc3060fb32e9d1436519c004c19a9665156b4370860001b616e63565b6146de7f7ca85795d67853f54fd7109f61da243ed35a6176bdd9512c2a63370ced7b1d1560001b616e63565b84600660008973ffffffffffffffffffffffffffffffffffffffff1673ffffffffffffffffffffffffffffffffffffffff168152602001908152602001600020600001819055506147517fc632230a70045e9525ccf4972c2bcc0211038037d326ed8765e17940233ce6f660001b616e63565b61477d7f59b5b5b1a004f4717c9fb6b386c8ced82358260d65bfd3f2ca0cef99ff952a7460001b616e63565b83600660008973ffffffffffffffffffffffffffffffffffffffff1673ffffffffffffffffffffffffffffffffffffffff168152602001908152602001600020600101819055506147f07fdffb9ad4c5bffd16f717a1f38abc39f731bd0ab695db59eb0292eb6ba8ccc22260001b616e63565b61481c7f90ad8820c7ccfb4917466e331601d20a651d90635bb0bd088b3c6993d4ab52c060001b616e63565b6000831461482a578261484c565b7fffffffffffffffffffffffffffffffffffffffffffffffffffffffffffffffff5b600660008973ffffffffffffffffffffffffffffffffffffffff1673ffffffffffffffffffffffffffffffffffffffff168152602001908152602001600020600201819055506148be7ffac84240b0898076e9cec553c43aa66121a89f3f1d13d98867548ca3f70bda5d60001b616e63565b6148ea7f99301475a6244b75cb32363953e865feec02ed266e11e347b77e9e58dee04d9860001b616e63565b6148f48787616e66565b50505050505050565b6149297f4fcac04b723ddc84cbfaad6493c1263c75c4dcdad1e5be2fcc39bfd9d0c9aec960001b6175b9565b6149557fcca1c812385a9edd42ae2639345472fbc6fb3f2c45ac198c75dd2895eb8bbb3260001b6175b9565b6149817f8cb3d5655e4d5fa5bd2b1c69ba8e1e1ebf1b3dc7b5378bb14ad3458e75921eac60001b6175b9565b60008054906101000a9050506149b97ff43bc64bed64941de2be64f3f60909fa9aa68e91e87bdf1b7aa0225ea419c7bb60001b6175b9565b6149e57fef115b4592ec06ad6c54e99dda55f6a6a28a12057170634b04cf05dbccf8396360001b6175b9565b614a117f639563676db1410662e83ae86f927fc7f14e49a9d7e8f1437f3c7a1f839318a360001b6175b9565b614a3d7f5360b0ad6f149e9d5e18a126ee702bad3d209d70e1a92d1707b33ecd6eea390860001b6175b9565b801515600160008473ffffffffffffffffffffffffffffffffffffffff1673ffffffffffffffffffffffffffffffffffffffff16815260200190815260200160002060009054906101000a905050505050565b6008818051602081018201805184825260208301602085012081835280955050505050506000915054906101000a900473ffffffffffffffffffffffffffffffffffffffff1681565b6040518060400160405280600681526020017f435552544f4b000000000000000000000000000000000000000000000000000081525081565b81614b3f7fe2da3c8be1756550149afcdca89a862da2c381191b0689bd6bfbeb045c93694e60001b616e63565b614b6b7f9fe924dc8e1430b445843b45af46e7352f5ceff89345ad9a8fc1b848b5b77b0160001b616e63565b614b977ff62216daf7691ca02b2018fb5cfae2b7aa18391d709ed68936314d265ed2ac4060001b616e63565b3373ffffffffffffffffffffffffffffffffffffffff168173ffffffffffffffffffffffffffffffffffffffff1614614c2857614bf67f49944c572b375e66475d608dc873b8535b9d18d59450e3e2e0d247d942487d5b60001b616e63565b6040517f39e7619900000000000000000000000000000000000000000000000000000000815260040160405180910390fd5b614c547f2d7737cfd2b213bcf63007343498f920bb8b7d24b241debf88b16b89766b173f60001b616e63565b614c807f15d9c2b277b48e4ef7df7e8fc0f842a4b504b75f12bc58e278d6041bc40e280160001b616e63565b614cac7f0afc114a89aa054b9bc9b47ad3a79c6e00a26825cc5caa5a20d8160cae31767160001b616e63565b614cd87fbb93229a126ce05e9faa655aa89a42fbb8af8c267c06d6dae5fba955999c939f60001b616e63565b614d047f3f5edb72ddda8523b33835aac0bce60bc1bd7187146eb74967e8cdc3204a393460001b616e63565b81600f60008573ffffffffffffffffffffffffffffffffffffffff1673ffffffffffffffffffffffffffffffffffffffff16815260200190815260200160002060006101000a81548173ffffffffffffffffffffffffffffffffffffffff021916908373ffffffffffffffffffffffffffffffffffffffff160217905550505050565b60066020528060005260406000206000915090508060000154908060010154908060020154905083565b6007602052816000526040600020602052806000526040600020600091509150505481565b614e027f4fcac04b723ddc84cbfaad6493c1263c75c4dcdad1e5be2fcc39bfd9d0c9aec960001b6175b9565b614e2e7fcca1c812385a9edd42ae2639345472fbc6fb3f2c45ac198c75dd2895eb8bbb3260001b6175b9565b614e5a7f8cb3d5655e4d5fa5bd2b1c69ba8e1e1ebf1b3dc7b5378bb14ad3458e75921eac60001b6175b9565b60008054906101000a905050614e927ff43bc64bed64941de2be64f3f60909fa9aa68e91e87bdf1b7aa0225ea419c7bb60001b6175b9565b614ebe7fcbea5c8cb599ca0555f686cce8a7b139b913b101df2fc72f338ca0c1df9ed87f60001b616e63565b614eea7f5beac1976684c7b290aaa28e50d2a40430649aa74006527b60bb73cfed69c10c60001b616e63565b614f167f2cac8cab5f04a48c369d6f3b69758d463909ea364fed870fd219e43868cec1bb60001b616e63565b80600360006101000a81548173ffffffffffffffffffffffffffffffffffffffff021916908373ffffffffffffffffffffffffffffffffffffffff16021790555050565b6000806000806000614f8e7f89ef955ed21c58ad379f17452ead9cc1b845578cc90fe4b450f1769a4434fb4060001b616e63565b614fba7fb22fc86cd992b4366b785dd3ebc80bda67d88201e45f4a648fc60390a93f0ef660001b616e63565b614fe67f435947360452b2eb3c23751c49545d03e2a7948d63a12325b309fe4bdee9e64c60001b616e63565b670de0b6b3a764000060096001015487615000919061a7d0565b61500a919061a79f565b94506150387fa4f61b53b2ad6c6dd22ade44e2bc4f5cdddbe3409969ef09d83f4e2bda0003b960001b616e63565b6150647f14088029f92df806e9ea2f14f8f1071461a4af79ab41ca09fc06e5fc6d3cc78e60001b616e63565b670de0b6b3a76400006009600201548761507e919061a7d0565b615088919061a79f565b93506150b67f955f7d31644d775444ba820f9beafc4cf4207b664a459ff165369f37b22234bb60001b616e63565b6150e27fd311e3f106cf2aa749c0c358215a3632217138c999759e68db8834cc03984e6760001b616e63565b670de0b6b3a7640000600960030154876150fc919061a7d0565b615106919061a79f565b92506151347fdeeae329f842dc6e6832f0d1a56680f50dde64f39e1f6d4952c594466ee08ae560001b616e63565b6151607f35b0ac2eb355c5180a50731d3fae0f5df6717ca03f3432a186892fd48c15964060001b616e63565b670de0b6b3a76400006009600401548761517a919061a7d0565b615184919061a79f565b91506151b27f9baa8c389b3891dc4e2d997a38b22b3745f03caee2c5805e29e9ec17e66fb04a60001b616e63565b6151de7fd849cadba7ebbe4c66d92533f6322d15e73069347be29ec7ef7d87f48f20c7e660001b616e63565b818385876151ec919061a749565b6151f6919061a749565b615200919061a749565b905091939590929450565b826152387fe2da3c8be1756550149afcdca89a862da2c381191b0689bd6bfbeb045c93694e60001b616e63565b6152647f9fe924dc8e1430b445843b45af46e7352f5ceff89345ad9a8fc1b848b5b77b0160001b616e63565b6152907ff62216daf7691ca02b2018fb5cfae2b7aa18391d709ed68936314d265ed2ac4060001b616e63565b3373ffffffffffffffffffffffffffffffffffffffff168173ffffffffffffffffffffffffffffffffffffffff1614615321576152ef7f49944c572b375e66475d608dc873b8535b9d18d59450e3e2e0d247d942487d5b60001b616e63565b6040517f39e7619900000000000000000000000000000000000000000000000000000000815260040160405180910390fd5b61534d7f2d7737cfd2b213bcf63007343498f920bb8b7d24b241debf88b16b89766b173f60001b616e63565b6153797f15d9c2b277b48e4ef7df7e8fc0f842a4b504b75f12bc58e278d6041bc40e280160001b616e63565b6153a57f7c7b696814a50f354b898129917623c9dca7d353a1a92ecdf3e98431b998607f60001b616e63565b6153d17f75fc971ba18f5d7029640594cb6fb26a66467700629d1d25fcf2a35e203947da60001b616e63565b6153fd7fb0dc022d01e186a105c3e8a56cc50f004be1a36ade605cf8d2548ca491e1c0fd60001b616e63565b600073ffffffffffffffffffffffffffffffffffffffff16600560008673ffffffffffffffffffffffffffffffffffffffff1673ffffffffffffffffffffffffffffffffffffffff16815260200190815260200160002060020160009054906101000a900473ffffffffffffffffffffffffffffffffffffffff1673ffffffffffffffffffffffffffffffffffffffff16146154f1576154bf7f5ca5b007af48c843dfeecd05c05348b7a3c5abbec226bc933ea6b6a9eb70c88f60001b616e63565b6040517fa29d9c5000000000000000000000000000000000000000000000000000000000815260040160405180910390fd5b61551d7fab60a233f30fcd8d3a3d0e6635d66982383430018747734fb58939ba6115b0c560001b616e63565b6155497f510dc46b4c5caf3f52856e42f915e0480bf8b2b7b48f140afb5a35da6d42e7e860001b616e63565b6155757f1707a5bf0e91d002b471be811bf6cd91c295763e2fce84ca071c74a4e7c7a56260001b616e63565b600073ffffffffffffffffffffffffffffffffffffffff1660088360405161559d919061a347565b908152602001604051809103902060009054906101000a900473ffffffffffffffffffffffffffffffffffffffff1673ffffffffffffffffffffffffffffffffffffffff1614615645576156137fe55064e039096ed0abf766c962b5cb08cd3805355f9d8aa3dc0212ad31e691c860001b616e63565b6040517fd53d66ee00000000000000000000000000000000000000000000000000000000815260040160405180910390fd5b6156717f89bb4d5b2033ffcad0f03c815145b7c5c6d47ed99ec252c1130eb9a7db69bbc860001b616e63565b61569d7f48b3c53813e5c6bae878294f4a0014ebf0d573dac2d90f69c371434fe67ccb1a60001b616e63565b6156c97f8259b3b481c79cb048d3f4e66402cc6c295290f80e7c24e99826651d5e9a753a60001b616e63565b82600560008673ffffffffffffffffffffffffffffffffffffffff1673ffffffffffffffffffffffffffffffffffffffff168152602001908152602001600020600001908051906020019061571f9291906199b6565b5061574c7f143666e7c6c85a0c978a4a7acb9203d39edb267434d531891b887bc39c2a377460001b616e63565b6157787fac5821953719d32247ea9526af334a03b708a93d88d70cd5db869b338d2a7e0c60001b616e63565b81600560008673ffffffffffffffffffffffffffffffffffffffff1673ffffffffffffffffffffffffffffffffffffffff16815260200190815260200160002060010190805190602001906157ce9291906199b6565b5050505050565b6158017fa8db01a62b21a7360487aa673bad32eef4a96d9d3b76aca02e94daa8fd07889c60001b616e63565b61582d7f02015efce239202450c475982bca7c54bb7386ce8247d30cafd26321041de38d60001b616e63565b6158597fa5a1554b2cc807e85e5e203ab66e1374ebee959ff69753f8df8394f3ba2abf3660001b616e63565b6000600660008573ffffffffffffffffffffffffffffffffffffffff1673ffffffffffffffffffffffffffffffffffffffff1681526020019081526020016000206000015414806158ec575042600660008573ffffffffffffffffffffffffffffffffffffffff1673ffffffffffffffffffffffffffffffffffffffff1681526020019081526020016000206000015411155b1561594f5761591d7f751f1dc42c1ea369dfeeb1271f66144167033ce483739db68afdd3cb86494f4660001b616e63565b6040517f9c80ba0800000000000000000000000000000000000000000000000000000000815260040160405180910390fd5b61597b7fe2f4af224bbc95ce115b271f0e2045676f639f8d10b9859671c6de5fb0e0e1f760001b616e63565b6159a77ffb29fb3f9aef015e0d0fa84cbcff64cc96ef238828ad7a2619e717097fa3d21360001b616e63565b6159d37fb142db52f10c4e3515e3fb06901988423ffa65f5787883a5b25325590e0efbf360001b616e63565b81600760008573ffffffffffffffffffffffffffffffffffffffff1673ffffffffffffffffffffffffffffffffffffffff16815260200190815260200160002060003373ffffffffffffffffffffffffffffffffffffffff1673ffffffffffffffffffffffffffffffffffffffff1681526020019081526020016000206000828254615a5f919061a749565b92505081905550615a927fbe1aefb2f395920bc6cb188896d851bbe3c83310e252306e40fa357ba4fa62ca60001b616e63565b615abe7fda8d33952ed43e2e0d7345c6d5f60750c7ead336f6b1b313ec9e613ca168b4e360001b616e63565b6000600760008573ffffffffffffffffffffffffffffffffffffffff1673ffffffffffffffffffffffffffffffffffffffff16815260200190815260200160002060003373ffffffffffffffffffffffffffffffffffffffff1673ffffffffffffffffffffffffffffffffffffffff168152602001908152602001600020549050615b6b7f69a37f29f54d3c2ffc0bea4b0efd10f20c04f353d53db8a4d2f31697a7bfb18f60001b616e63565b615b977f471b1f46441785d00a30ecb2255d6babd8bf47b5b094d65e42eab7e378e47e9b60001b616e63565b600660008573ffffffffffffffffffffffffffffffffffffffff1673ffffffffffffffffffffffffffffffffffffffff16815260200190815260200160002060020154811115615c3f57615c0d7fcb4f4ce1c84d3ea753808a5ac55d8ee18fd48e921fa377c51b1892fffc26640e60001b616e63565b6040517ff22689ed00000000000000000000000000000000000000000000000000000000815260040160405180910390fd5b615c6b7f5682df4db1d47af02cd2492e9fefc42791e18f475c615ec155d702cdf818fba360001b616e63565b615c977fd2887da7f515dd968c2df3dec6242e98f4977d9212072d2d53d265d84571e69560001b616e63565b615cc37f1da22bc9d5ecf8d03cfaae716790fda085e8ef64474129650cf58b6e1aa73b9460001b616e63565b615cce843384613f7a565b615cfa7f83a1545393e565c48849a1a712b92f5dd8fb0be8f6eb32e471fa52783a89149c60001b616e63565b615d267f608ccff917515ee582a507de10eed3d7923da63d2574e8986ba5ad38d9beff5260001b616e63565b615d308484616e66565b50505050565b615d627f4fcac04b723ddc84cbfaad6493c1263c75c4dcdad1e5be2fcc39bfd9d0c9aec960001b6175b9565b615d8e7fcca1c812385a9edd42ae2639345472fbc6fb3f2c45ac198c75dd2895eb8bbb3260001b6175b9565b615dba7f8cb3d5655e4d5fa5bd2b1c69ba8e1e1ebf1b3dc7b5378bb14ad3458e75921eac60001b6175b9565b60008054906101000a905050615df27ff43bc64bed64941de2be64f3f60909fa9aa68e91e87bdf1b7aa0225ea419c7bb60001b6175b9565b615e1e7ff6224f0fd5f19e0a85a2fd32acd40291ccbb02594a279194380acd227bf82c2a60001b6175b9565b615e4a7fbb2aa5180e9f7fedb7a14dfb6bd8641a8aa972d49a3279d314dd9a25e1d3fdd060001b6175b9565b615e767f4d6b79315cb008014f9d6d4997f0b6e95eba005c1a5a6466894be71fb321cb7360001b6175b9565b806000806101000a81548173ffffffffffffffffffffffffffffffffffffffff021916908373ffffffffffffffffffffffffffffffffffffffff16021790555050565b615ee57fbd8a6ad2bdc3b01fa73851f3cf4e04f316824d560bdcfdd6f30001a08aab075760001b616e63565b615f117f358101cd113d661b92e6ae363b0bbec07aad57899291b86fc9dffbfb253d029460001b616e63565b615f3d7f666ebb76ef03c779206183f9fdddc0fd7869d804c26a74327aa6e736fefc707360001b616e63565b601060008373ffffffffffffffffffffffffffffffffffffffff1673ffffffffffffffffffffffffffffffffffffffff16815260200190815260200160002060003373ffffffffffffffffffffffffffffffffffffffff1673ffffffffffffffffffffffffffffffffffffffff1681526020019081526020016000205481111561601f57615fed7faf80f8b6a8358a86d9cf0f71a72dee6430aae5480375a651caf0e5f440d7393260001b616e63565b6040517ff4d678b800000000000000000000000000000000000000000000000000000000815260040160405180910390fd5b61604b7f29763b05be20618996e1ec01be851fcd34ddad48caa0f34adc78fd7682d9d84960001b616e63565b6160777fec8da52aa5887ad659c5ec72c9406b72c8120f3e2645f1533b31551d1034e67660001b616e63565b6160a37f84462cf4a856e7d395a8bc7a17f4820a8e92e99351b3a9d5d15b3c7d19d2dd8060001b616e63565b6000600560008473ffffffffffffffffffffffffffffffffffffffff1673ffffffffffffffffffffffffffffffffffffffff16815260200190815260200160002060020160009054906101000a900473ffffffffffffffffffffffffffffffffffffffff1690506161367f68e395588ecf9f3d059417925d688ea914c99d042e654e8893b59ed895813a4c60001b616e63565b6161627f611a96979ce7a4d57566396d2c65bf7ea9ff45d70166315d112148e4f48b9f0b60001b616e63565b600073ffffffffffffffffffffffffffffffffffffffff168173ffffffffffffffffffffffffffffffffffffffff1614156168a1576161c37f6dcfe4b0f2b4bfe087119c9bcd4706e2c80c1adf4f62a905de43c386172ff04160001b616e63565b6161ef7f94c43dfbc1e2967029a8d7af3caa05b3fdbb4b80dffff7f68ab3588706393f3760001b616e63565b61621b7f302ee71e656229d3a19c735be0009cd80db70c102d8432918d3694ed35335bea60001b616e63565b60405160200161622a9061a3dd565b60405160208183030381529060405280519060200120600560008573ffffffffffffffffffffffffffffffffffffffff1673ffffffffffffffffffffffffffffffffffffffff168152602001908152602001600020600001604051602001616292919061a3b1565b60405160208183030381529060405280519060200120148061633e57506040516020016162be9061a3dd565b60405160208183030381529060405280519060200120600560008573ffffffffffffffffffffffffffffffffffffffff1673ffffffffffffffffffffffffffffffffffffffff168152602001908152602001600020600101604051602001616326919061a3b1565b60405160208183030381529060405280519060200120145b1561653c5761636f7fbc8b035aa46202bd8d4dda40327e74df9fd379fed8ecaf4c3d19703fb40e40eb60001b616e63565b61639b7fda2e3d601720415bde608dbcaeed3961942c62c40ac04f6b0a8cd12c5d260ce460001b616e63565b6163c77f2ee8e5cedb1d5dbdd4008b09a6a56268e1bca3858a0b6b7992e072eb2d3a525e60001b616e63565b6040518060400160405280600b81526020017f437572766573546f6b656e000000000000000000000000000000000000000000815250600560008573ffffffffffffffffffffffffffffffffffffffff1673ffffffffffffffffffffffffffffffffffffffff16815260200190815260200160002060000190805190602001906164529291906199b6565b5061647f7f9650a180c2d3fd86a1e5007de5c35798be4f73a286cd121bd30589dfb958b7be60001b616e63565b6164ab7f7598a2ab7c367cc5709f5bd795c48295f0429cd906f3704f7f3659f6908ca37f60001b616e63565b6040518060400160405280600681526020017f435552544f4b0000000000000000000000000000000000000000000000000000815250600560008573ffffffffffffffffffffffffffffffffffffffff1673ffffffffffffffffffffffffffffffffffffffff16815260200190815260200160002060010190805190602001906165369291906199b6565b50616569565b6165687f88fad5ea69dd513fa9b1701526d6208aaf043c8cec1427268f469216b810f79b60001b616e63565b5b6165957f1ca325b83b3deb14227b95e7e165562eac8ad5428d161fad2ffc45970ac698ac60001b616e63565b6165c17f90a84400e3a6b81bc82fe3fdf5140986e9d9a035fb9e107124cc1867f7c2f34760001b616e63565b61675f600560008573ffffffffffffffffffffffffffffffffffffffff1673ffffffffffffffffffffffffffffffffffffffff16815260200190815260200160002060000180546166119061a928565b80601f016020809104026020016040519081016040528092919081815260200182805461663d9061a928565b801561668a5780601f1061665f5761010080835404028352916020019161668a565b820191906000526020600020905b81548152906001019060200180831161666d57829003601f168201915b5050505050600560008673ffffffffffffffffffffffffffffffffffffffff1673ffffffffffffffffffffffffffffffffffffffff16815260200190815260200160002060010180546166dc9061a928565b80601f01602080910402602001604051908101604052809291908181526020018280546167089061a928565b80156167555780601f1061672a57610100808354040283529160200191616755565b820191906000526020600020905b81548152906001019060200180831161673857829003601f168201915b5050505050618d4c565b600560008573ffffffffffffffffffffffffffffffffffffffff1673ffffffffffffffffffffffffffffffffffffffff16815260200190815260200160002060020160006101000a81548173ffffffffffffffffffffffffffffffffffffffff021916908373ffffffffffffffffffffffffffffffffffffffff16021790555061680b7ff50f9a89464a381d192985c4c4acc000c727ceed6c7a984725e0f8dfb3fcdb5460001b616e63565b6168377f1c0877c709ca4dba7df994f2dbb16387bc4ddea3962dc1045bb1afc876784d2f60001b616e63565b600560008473ffffffffffffffffffffffffffffffffffffffff1673ffffffffffffffffffffffffffffffffffffffff16815260200190815260200160002060020160009054906101000a900473ffffffffffffffffffffffffffffffffffffffff1690506168ce565b6168cd7fe7ac8c4ac41aab6998eca0ebfce5a3bf42fd215a17dea15a000bd9ecbbf9401060001b616e63565b5b6168fa7ffb0970314b1155d3c8fbad0ca40ca891647779c2e99a0b8490b93fe4b15c927f60001b616e63565b6169267feb294fc88a7f41d87437ca15b5b8db549c0624bfb92fcda7ef0dfeabd7bfde3560001b616e63565b616932833330856186be565b61695e7f19e7e227e0be4d4af6e453457d945196dfd7b1ab8edf6894c100d3123ea7168460001b616e63565b61698a7f8eedd23da740f6d6d8fb86344a4eab7d23b7bfc30176e4a5222a1e56384868f460001b616e63565b8073ffffffffffffffffffffffffffffffffffffffff166340c10f1933670de0b6b3a7640000856169bb919061a7d0565b6040518363ffffffff1660e01b81526004016169d892919061a4b4565b600060405180830381600087803b1580156169f257600080fd5b505af1158015616a06573d6000803e3d6000fd5b50505050505050565b616a3b7f4fcac04b723ddc84cbfaad6493c1263c75c4dcdad1e5be2fcc39bfd9d0c9aec960001b6175b9565b616a677fcca1c812385a9edd42ae2639345472fbc6fb3f2c45ac198c75dd2895eb8bbb3260001b6175b9565b616a937f8cb3d5655e4d5fa5bd2b1c69ba8e1e1ebf1b3dc7b5378bb14ad3458e75921eac60001b6175b9565b60008054906101000a905050616acb7ff43bc64bed64941de2be64f3f60909fa9aa68e91e87bdf1b7aa0225ea419c7bb60001b6175b9565b616af77fea010c2df8e0f485658b93127a9b7ffc8e35eb8da63ce33e3fd5a16df6058bea60001b616e63565b616b237f06ea76cc4aed68f5181f038506bc0362639881127fbfad0cf7934087b59f1e7960001b616e63565b616b4f7fb04337248ef66b131917ebdcf912c86b374df831794d090a8b64a773478ad4b560001b616e63565b80600260006101000a81548173ffffffffffffffffffffffffffffffffffffffff021916908373ffffffffffffffffffffffffffffffffffffffff16021790555050565b616bbf7ff70e523a18e5e56509c660f9f75f9cfa0c3744040728ef2b1aca3b24e2c5c53b60001b6175b9565b616beb7fd2a7fc3653d8f28a1991c495906547529c48d31d0ee1907e5263da1036033d7360001b6175b9565b616c177f3b7a0008dbe54fb81ee489f850789e1489231c0f0313e965a5b8695a8a615dd960001b6175b9565b60011515600160003373ffffffffffffffffffffffffffffffffffffffff1673ffffffffffffffffffffffffffffffffffffffff16815260200190815260200160002060009054906101000a90505050616c937f092fb8c21b140f5d8b11a9b28bc3e38a03aa5af1ec9fdec353ae58620212800460001b6175b9565b616cbf7f4d3416306b4cf98ae9c08ddaf22a4e53fc2026f2897200130d10658c7aec261360001b616e63565b616ceb7f093fe0b34b25e731cbe6488d45841fdd5f6dbc6c38be169d07e5cd6af777f72f60001b616e63565b616d177fb92c741bba2c2bc9a20a421ee91e2e1a0ebda9e800bc167a2454dbd0fe3fad6060001b616e63565b80600960040154600960030154600960020154600960010154616d3a919061a749565b616d44919061a749565b616d4e919061a749565b1115616db257616d807fa245549e48af39919ba74f0295c851028b208f167d0960836bacc9303b17f4e660001b616e63565b6040517fb7f141f600000000000000000000000000000000000000000000000000000000815260040160405180910390fd5b616dde7f093d71fc57443fe058abb223d0656dffe21da9db48339433490d5feba972d80a60001b616e63565b616e0a7f4ae7d245eda7a8815e7a2bff9b5541f7acce4a7eed99a4bac37f22a3ce8b0c9360001b616e63565b616e367fa1741410af97e654b6f9fce4f5055f95b8f880a4cf38abe82c548688c2e1055d60001b616e63565b8060096005018190555050565b60016020528060005260406000206000915054906101000a900460ff1681565b50565b616e927f8a43d88d4fd850e69f1c863862495c1b5c373f9a63ec396429e54e218ea4c54160001b616e63565b616ebe7fa69dfb291005ec289280731ef7fac0d559750b59758504e7c35e1dc885c9418660001b616e63565b616eea7fb8a04556246d5edcb595ad42a1adfebb539c42e45daf2b6576d4fed0b76e7a7560001b616e63565b6000601160008473ffffffffffffffffffffffffffffffffffffffff1673ffffffffffffffffffffffffffffffffffffffff168152602001908152602001600020549050616f5a7fb6be913a800cb77b149d232f2f8094f1d8b993a4634d6b5e0eeb541cec7f403f60001b616e63565b616f867fc9783d42ffcbce113e2f4dd93d931b480a622337433a78e46e8bddbfc35a99db60001b616e63565b6000811180616fc057503373ffffffffffffffffffffffffffffffffffffffff168373ffffffffffffffffffffffffffffffffffffffff16145b61702257616ff07f03dc8a47c6796ddf68b63d0a031825a8530731bc2529eeda00fa4ebe89fd240960001b616e63565b6040517f39e7619900000000000000000000000000000000000000000000000000000000815260040160405180910390fd5b61704e7f90448281b40e82ca732f5667b48cd2f648d66fc364624ef0e1b57decada2e41960001b616e63565b61707a7fc2f556ffb2e55f3291378887c7dc5a3ebfba210be151bc7e9fbdb1bf2604f33a60001b616e63565b6170a67f5a7260bf5ba91422b272243fedc900bc6e175135e13e33093aae6676419fbae760001b616e63565b60006170b28284612d13565b90506170e07f35c2e74c254daea238a3dfd88578477875c2f936b34d6cf558879c15831be58460001b616e63565b61710c7fe8cc7ead86e91c5b439b76fac276a29d0ac7bfa2cddfd7abab7219431d1500dd60001b616e63565b600061711782614f5a565b9450505050506171497fd5e01c217b20bcefe451cc12df912f8587ba106aaf0b548c276fa843297ac1aa60001b616e63565b6171757f4e3b360a78a8b87f40acf2490e7a499b07b77a6a31365d8c58e4ca8d44f4360960001b616e63565b8082617181919061a749565b3410156171e6576171b47fa66abc3edff727b39fbf612e2b5e6b2bf752daa7622206b26c610638d19a421f60001b616e63565b6040517fcd1c886700000000000000000000000000000000000000000000000000000000815260040160405180910390fd5b6172127f36a875f9038790f9e4168f747529bfdc7e6327c81e8943cceb25eda108a94b1e60001b616e63565b61723e7fb3c5a7f0644acf5147bbb45404b41f58aacee11f650c192b31202c302d0bb21160001b616e63565b61726a7f909fb35c7edc5d5dc0640ad6961bc3c0d18eab8e14b9ece36f06fd2d7ce0e2db60001b616e63565b83601060008773ffffffffffffffffffffffffffffffffffffffff1673ffffffffffffffffffffffffffffffffffffffff16815260200190815260200160002060003373ffffffffffffffffffffffffffffffffffffffff1673ffffffffffffffffffffffffffffffffffffffff16815260200190815260200160002060008282546172f6919061a749565b925050819055506173297f21b857942392c438e256d7d756ef94e09ebfbfcbf745e89cabf08d58fca8316f60001b616e63565b6173557f3e1c21549c8a76c62dd41f4b4925e8255896dea7419a1eb18967b6fd6073e6f960001b616e63565b8383617361919061a749565b601160008773ffffffffffffffffffffffffffffffffffffffff1673ffffffffffffffffffffffffffffffffffffffff168152602001908152602001600020819055506173d07f0d61b936cb02f4def0e7541d038c7f8b1abd01d87ea3d75afced348736bba22e60001b616e63565b6173fc7fed0b1d3bf6a18f7ca1aa2e9d30982a6d1ff56ed60d9d67d8303f3eaf62f1326660001b616e63565b61740a8560018487876175bc565b6174367fec7cd2b53ca763f66f56a69ff4f3240f28b3b33a9dfe6fc398b5110632b3893360001b616e63565b6174627fc309ec86fee7b5a8268ff20e7803cb604bde8639b038ed3cdfcc4e0eda36627e60001b616e63565b600084601060008873ffffffffffffffffffffffffffffffffffffffff1673ffffffffffffffffffffffffffffffffffffffff16815260200190815260200160002060003373ffffffffffffffffffffffffffffffffffffffff1673ffffffffffffffffffffffffffffffffffffffff168152602001908152602001600020546174ec919061a82a565b14156175855761751e7f2d7f785b6491257295e4a00be613e68c28c2eb12acde3038d5a94f269587a2cd60001b616e63565b61754a7fd517da4aa035f5efe36d11b7f899bbd307f83d0e0d2c186eb539f4d1ff28bff960001b616e63565b6175767f041d8923a779f66caecf6fd40a47b545ceb46df7f9a9ddfd50dd14eb4eb98f7e60001b616e63565b6175803386619371565b6175b2565b6175b17f032d4fbd9745d9f2531af0119979f4c1c459e06bf2a1ab194754dd5ac23aae0160001b616e63565b5b5050505050565b50565b6175e87f267ec16c86794f5c0086bbce89f6e7a9936008ed2e084a19a563d10e7e6102d460001b616e63565b6176147f8cd209c3156229a45021cefcb92c26cdd586ca1376b18681e91a536cae6c0a6e60001b616e63565b6176407f7440b089ffd742328be055d86d4f0654bb6732ac6058ad261fc92d6f83618c8960001b616e63565b60008060008061764f87614f5a565b5093509350935093506176847fa1bfc97dd632f482c952bb07e8b905f9fd43f4a260160e1c79759242740d3a6360001b616e63565b6176b07fb7621e9c550a7a4ac2c906e3f5da7f947d7370a64665a8fcccc26abebf0d701360001b616e63565b6176dc7ffa5265d090d7e1dcbe7f35d443e17850139a0518ac18062e0c32b63cfe7b7fd560001b616e63565b60008073ffffffffffffffffffffffffffffffffffffffff16600f60008c73ffffffffffffffffffffffffffffffffffffffff1673ffffffffffffffffffffffffffffffffffffffff16815260200190815260200160002060009054906101000a900473ffffffffffffffffffffffffffffffffffffffff1673ffffffffffffffffffffffffffffffffffffffff161415905061779b7f440a8c161bc9a86b6ddfa4b65695422fc12740ec36a88102d08e197a397f33d060001b616e63565b6177c77f1f1d2a8bbb4b113b771ad4c40cc35d4080bde37f288f998524f1e180c593565560001b616e63565b6177f37f01384b469327713540e26be96353eb5eafa602f95c8c04dd733847b21f7a77fb60001b616e63565b6000896178005733617827565b600960000160009054906101000a900473ffffffffffffffffffffffffffffffffffffffff165b90506178557f226439d75c25ab9b9d866d00dc7e433948878c99a46b2e3e298cefa8843308eb60001b616e63565b6178817fcc54c5d67a80e4b5f0026d38cc5a5589f1e7e53dbf7e8e44c31d3da392bc822260001b616e63565b600082617899578487617894919061a749565b61789b565b865b90506178c97fe3d09fd8d95b33f1a471a317d3173b52a5a5585129c973742827459f4a2c077560001b616e63565b6178f57f19c081161e5db1b5c3638b6dd6c712a77b43bdb3a9598a1556c62dbbeb4e421c60001b616e63565b60008486888a8e617906919061a82a565b617910919061a82a565b61791a919061a82a565b617924919061a82a565b90506179527fda2a0d88aa3350ad6c82dfa8a98e54547fc366a3f07bbfb49878b722d1f88d8b60001b616e63565b61797e7fc02d85e4c25b344a5305998145fc5823320d7ccf33cf9393cf32c4956ca2389260001b616e63565b60008373ffffffffffffffffffffffffffffffffffffffff168d6179a257826179a4565b835b6040516179b09061a3c8565b60006040518083038185875af1925050503d80600081146179ed576040519150601f19603f3d011682016040523d82523d6000602084013e6179f2565b606091505b50509050617a227f84b0971739dd8db425333b930d1638c57895a3a9308d3e7651915a7b4dec37ee60001b616e63565b617a4e7f54e4ddeb28ae711d011e75a8fd45fe5c48d16e0f5f61bd123253dd9f6642ec2760001b616e63565b80617ab157617a7f7fe10d72c58edf8af499d9706d6cbb4857ad17b7b1530badc1d36c2919d61c6de760001b616e63565b6040517fd373901400000000000000000000000000000000000000000000000000000000815260040160405180910390fd5b617add7f878585522240ed8136fdc64feeb5f32160fdb76060b8cafd3de4c1c22aa9303760001b616e63565b50505050617b0d7f963464ecf13f16f6e75bb47ccd204e22e4532bf9c5591ee51368e494a65852f560001b616e63565b617b397f1564c243e7d4a3875ab1ecffdddfc391fe9295b7a2e5bbcad186f62d3f11d20460001b616e63565b617b657f74e59b641a0cfc8c92ca61f2f6e5cf2debcb57c656ec52ce4c9f331c6932e17560001b616e63565b60008a73ffffffffffffffffffffffffffffffffffffffff1685604051617b8b9061a3c8565b60006040518083038185875af1925050503d8060008114617bc8576040519150601f19603f3d011682016040523d82523d6000602084013e617bcd565b606091505b50509050617bfd7f5a97774098906e3a6fb5b4fe6d8ae78312b1542820f1dc635970fe7bd314152160001b616e63565b617c297f1c953e0a3cdce15dd1bf27264c45df0fcfbccdddfaf6cf163f5ba5828d140d7160001b616e63565b80617c8c57617c5a7f8e2e00187c0080dbc016712f569785ade22f257b836c52a985bb4b8a3392d42f60001b616e63565b6040517fd373901400000000000000000000000000000000000000000000000000000000815260040160405180910390fd5b617cb87fc3aae76e9fc628bd361d4a1809be304ad136fefb8930e4db71eebb09f232c12460001b616e63565b50617ce57f3e6d35f5b2f7e885d2f3c188f8160a1aa4a917c5939e95adf7c7b72874e7cba160001b616e63565b617d117f9ce3de35b40108de2ee40ca06f7a80a6902f90cc41d29535795ca413d045d0cb60001b616e63565b617d3d7f6d2069f97e5d47fc01450931ac5ca6771dc81a7cd395444b5f74fa2982bc430660001b616e63565b600081617d5b57600160405180602001604052806000815250617e22565b600f60008c73ffffffffffffffffffffffffffffffffffffffff1673ffffffffffffffffffffffffffffffffffffffff16815260200190815260200160002060009054906101000a900473ffffffffffffffffffffffffffffffffffffffff1673ffffffffffffffffffffffffffffffffffffffff1684604051617dde9061a3c8565b60006040518083038185875af1925050503d8060008114617e1b576040519150601f19603f3d011682016040523d82523d6000602084013e617e20565b606091505b505b509050617e517f365feafd887d93b504df5c967035a75ac31d86d45869c2ff81f95c7fb22d5c3b60001b616e63565b617e7d7fc313efc248e759d8d73f348c8629e028c0b9954810b443dac8406601a894a9b060001b616e63565b80617ee057617eae7f6a25bdea05a804cd109aaa2ff587c6556a0688e0768e00d7851ab586f045c7fc60001b616e63565b6040517fd373901400000000000000000000000000000000000000000000000000000000815260040160405180910390fd5b617f0c7f9b774f16597236714b1f9a4e912bd5b0ec9ac7541af9f47a3c282a14ff3f9e9060001b616e63565b50617f397f591b49a2fb61d738a69c2fc40365b898c1be6f99a7d6062c9be906931a0cfb8c60001b616e63565b617f657fdad3d5c3933ee983427478e2fe072bc299946d221f1c1ddb4a4158c574ba5c5a60001b616e63565b6000600960040154118015617fc95750600073ffffffffffffffffffffffffffffffffffffffff16600360009054906101000a900473ffffffffffffffffffffffffffffffffffffffff1673ffffffffffffffffffffffffffffffffffffffff1614155b156181cc57617ffa7fa85d9afbf96ed17e1d4b93869f5e1373b6f2ab0eeabca940302de10ed92a063d60001b616e63565b6180267fff2b73958a6f8f12c6a7424b920bd6bc23ff2ab0dd0de2d9acea7f817b11acf360001b616e63565b6180527f74fb549ba47ce172a372af8763c7e642541f6a0f090a39c0d0506bc9ab890cfe60001b616e63565b600360009054906101000a900473ffffffffffffffffffffffffffffffffffffffff1673ffffffffffffffffffffffffffffffffffffffff16631e22e0738b336040518363ffffffff1660e01b81526004016180af92919061a40d565b600060405180830381600087803b1580156180c957600080fd5b505af11580156180dd573d6000803e3d6000fd5b5050505061810d7f5cf68059548a554d2deebbcba293f72426ebf510bbc9492a4dc6a3cc332c7e8060001b616e63565b6181397fe35fcc891bce4e1a8ad741565b86343ef2c9fd80610d076e0b715640388ca85f60001b616e63565b600360009054906101000a900473ffffffffffffffffffffffffffffffffffffffff1673ffffffffffffffffffffffffffffffffffffffff166364e084bf838c6040518363ffffffff1660e01b8152600401618195919061a3f2565b6000604051808303818588803b1580156181ae57600080fd5b505af11580156181c2573d6000803e3d6000fd5b50505050506181f9565b6181f87ff357ae0d458697e5bebd99a771eec0574a2d005d97a6e9f791484d8878ff9bb460001b616e63565b5b506182267f8950548541cdfd04e16f719ea506a478b98e1a11f504105e2153386003526eb160001b616e63565b6182527ff7b81d3bedc9880c2e5ded550ae1588cdff5a9bcf0d6442924b197989e93bd2d60001b616e63565b7f2c76e7a47fd53e2854856ac3f0a5f3ee40d15cfaa82266357ea9779c486ab9c3338a8a898b89898f618290578d8d61828b919061a82a565b61829d565b8d8d61829c919061a749565b5b6040516182b198979695949392919061a436565b60405180910390a1505050505050505050565b826182f17fe2da3c8be1756550149afcdca89a862da2c381191b0689bd6bfbeb045c93694e60001b616e63565b61831d7f9fe924dc8e1430b445843b45af46e7352f5ceff89345ad9a8fc1b848b5b77b0160001b616e63565b6183497ff62216daf7691ca02b2018fb5cfae2b7aa18391d709ed68936314d265ed2ac4060001b616e63565b3373ffffffffffffffffffffffffffffffffffffffff168173ffffffffffffffffffffffffffffffffffffffff16146183da576183a87f49944c572b375e66475d608dc873b8535b9d18d59450e3e2e0d247d942487d5b60001b616e63565b6040517f39e7619900000000000000000000000000000000000000000000000000000000815260040160405180910390fd5b6184067f2d7737cfd2b213bcf63007343498f920bb8b7d24b241debf88b16b89766b173f60001b616e63565b6184327f15d9c2b277b48e4ef7df7e8fc0f842a4b504b75f12bc58e278d6041bc40e280160001b616e63565b61845e7fc2af27a069d66379d1c64514b650fe9a3adde6e0889d1a5f603ee87cff35ace460001b616e63565b61848a7fcc8c614f7636ac9618657baf2b1a6fa972ed5aeafd9643d70d3d05afb215f03e60001b616e63565b6184b67f90374176dd5aef8edb3e0cf547a4460e26809eaf9610c65f3cc122c50afe8fae60001b616e63565b600073ffffffffffffffffffffffffffffffffffffffff16600560008673ffffffffffffffffffffffffffffffffffffffff1673ffffffffffffffffffffffffffffffffffffffff16815260200190815260200160002060020160009054906101000a900473ffffffffffffffffffffffffffffffffffffffff1673ffffffffffffffffffffffffffffffffffffffff16146185aa576185787fc607938264822f81a5687612989c97d1bff6950af603172ff5f90ecd4724b6f060001b616e63565b6040517fa29d9c5000000000000000000000000000000000000000000000000000000000815260040160405180910390fd5b6185d67ff82a723a9670e59125f1e485b407602eed34122a7c9b89659dca19656e018c6160001b616e63565b6186027fd5bb3e53a141d7d6797ac2e517139b0f71e66606f649920dbf87642d0b950c3860001b616e63565b61862e7fca63a30a551f3717113d1cecff1762f721918f6f977ae1a4724c73549c32068460001b616e63565b6186388383618d4c565b600560008673ffffffffffffffffffffffffffffffffffffffff1673ffffffffffffffffffffffffffffffffffffffff16815260200190815260200160002060020160006101000a81548173ffffffffffffffffffffffffffffffffffffffff021916908373ffffffffffffffffffffffffffffffffffffffff16021790555050505050565b6186ea7fe4667ae1c0a7d35a8e320e4bdb71d905049ee441b16252811cac7dc26d59f16960001b616e63565b6187167f90848aaf4ab1cc9e451927072a533096679283f19d8ca979beb50b12efb94df460001b616e63565b6187427fba4f82994044d19ed5559771e29361edccaf43fa5dd6c6b0dc706d99bdfada5760001b616e63565b601060008573ffffffffffffffffffffffffffffffffffffffff1673ffffffffffffffffffffffffffffffffffffffff16815260200190815260200160002060008473ffffffffffffffffffffffffffffffffffffffff1673ffffffffffffffffffffffffffffffffffffffff16815260200190815260200160002054811115618824576187f27fa5c72af93a4dddf5bdee3d50ce1d629c5b80d37980856b76ea0b631f88b22a4960001b616e63565b6040517ff4d678b800000000000000000000000000000000000000000000000000000000815260040160405180910390fd5b6188507fe53a78fb7a77ef7bda68d6ca66b8a7827c60e15abc88186a21f64dcd5da1791b60001b616e63565b61887c7f5053f5176e6c011526164c6f7973a94152a2d4f6110cfa617b3e9de40e3d09b560001b616e63565b6188a87fd417896db36ff9b4c1d808eca3a83d9ade177a635dc13db1c9c3b07bccf3128360001b616e63565b8173ffffffffffffffffffffffffffffffffffffffff168373ffffffffffffffffffffffffffffffffffffffff161461896e576189077f768e6ccbceacf6735e6d37d7cf91b4b8a912621a5d1e1ed12c81325a96ddf31e60001b616e63565b6189337fdba5fba943c352ee6539573fcd2f66e77a1cc4cfd2bb31f7dc53c1e12bcefa7460001b616e63565b61895f7f44f39e0e5fb4a5ec957eb9eb555daae942338560eff710bc564fc6e08f2d1dc460001b616e63565b6189698285619371565b61899b565b61899a7ff78fd82cd2fa7b6d0373bccfdf882daa497e5b0d6c7992e41e985167fd0e7f7860001b616e63565b5b6189c77f3e6bfcc429c07ec9f9e9871289163674b11a5c0dc05e5e5c5116e42ac25adbea60001b616e63565b6189f37fb6e2157761020e532142ea6d469866ef233bcf20f66c2e8dc6d66012bea5641960001b616e63565b80601060008673ffffffffffffffffffffffffffffffffffffffff1673ffffffffffffffffffffffffffffffffffffffff16815260200190815260200160002060008573ffffffffffffffffffffffffffffffffffffffff1673ffffffffffffffffffffffffffffffffffffffff16815260200190815260200160002054618a7b919061a82a565b601060008673ffffffffffffffffffffffffffffffffffffffff1673ffffffffffffffffffffffffffffffffffffffff16815260200190815260200160002060008573ffffffffffffffffffffffffffffffffffffffff1673ffffffffffffffffffffffffffffffffffffffff16815260200190815260200160002081905550618b277f1a7f0b9190a567d7bf0eb3b3c88e08e2c2d46eace165603feb661a553e037db860001b616e63565b618b537fb408a907a326b8f4e6a791c05975736ca7c42942e063c4b11d43f48c20e0fdad60001b616e63565b80601060008673ffffffffffffffffffffffffffffffffffffffff1673ffffffffffffffffffffffffffffffffffffffff16815260200190815260200160002060008473ffffffffffffffffffffffffffffffffffffffff1673ffffffffffffffffffffffffffffffffffffffff16815260200190815260200160002054618bdb919061a749565b601060008673ffffffffffffffffffffffffffffffffffffffff1673ffffffffffffffffffffffffffffffffffffffff16815260200190815260200160002060008473ffffffffffffffffffffffffffffffffffffffff1673ffffffffffffffffffffffffffffffffffffffff16815260200190815260200160002081905550618c877fe508174b5d09591a490a0d9108e443186fd1535ff6a4cfb377a673e24bfa98c060001b616e63565b618cb37f7d8d56bcfa4f430965567b77781b05ea56f524d77dd691c7aaa80b9aea5b07e760001b616e63565b8173ffffffffffffffffffffffffffffffffffffffff168373ffffffffffffffffffffffffffffffffffffffff168573ffffffffffffffffffffffffffffffffffffffff167fd1398bee19313d6bf672ccb116e51f4a1a947e91c757907f51fbb5b5e56c698f84604051618d27919061a5db565b60405180910390a450505050565b600082618d4285846196f3565b1490509392505050565b6000618d7a7f94b2179a7378a6b0d21eae0ec3135bda0e42f4aa3adee8a27f6adc6b6081c26360001b616e63565b618da67fca1fb4fbe3885a6503f120bd3d9a93f7e8df32117f9cd7d8c2997f95f98e59fe60001b616e63565b618dd27fff6d79f4e40f457178a206e4003591bbf3cf860792686d06e532f159fc2b241260001b616e63565b6040518060400160405280600681526020017f435552544f4b00000000000000000000000000000000000000000000000000008152508051906020012082805190602001201415618fcc57618e497f8b89e295aa478a4c5e10812726f230f942fc855c1dac6a4958b0a9547caeab4b60001b616e63565b618e757fa129695190c2904146d63a1a8774e2807ff9c8a40bbce8d56db1ab1e600eaccb60001b616e63565b618ea17fb268b21941a53e04d31c57b20668c160fb1efc7a7eea1e65e2890d3fbe80b8e860001b616e63565b600160046000828254618eb4919061a749565b92505081905550618ee77fd9abf500698aa41b8ece9ed8b5ff95e031263fc2fbbc6abcd65683d12574681260001b616e63565b618f137fbd80348b5333d9701842e605b0bcf8f227dc86fe4ba7a5519a3c0c2180184f4960001b616e63565b82618f1f600454619749565b604051602001618f3092919061a382565b6040516020818303038152906040529250618f6d7f33b1617bc4ad29a7dd7347d818ccb3fde8179bbd3f61a6c517f4e76dfc8e1b5c60001b616e63565b618f997fd62aec8b2b7ac5c9705ec21cd68eb64202d9e1f4ea3712559a4fa9370649744460001b616e63565b81618fa5600454619749565b604051602001618fb692919061a35e565b6040516020818303038152906040529150618ff9565b618ff87f3fb00b50d7e4443f0a62e5322780821a9b20cc4bddcf464ba1261a255bea48ed60001b616e63565b5b6190257f66c721d692a6f421ad09bb18b149cabec0314a3e7206840fd7dede9a221b9f1460001b616e63565b6190517f42bd4b88877d7c0b65fe05aefdf5107c1512257f4142b2492b085da243c16de260001b616e63565b600073ffffffffffffffffffffffffffffffffffffffff16600883604051619079919061a347565b908152602001604051809103902060009054906101000a900473ffffffffffffffffffffffffffffffffffffffff1673ffffffffffffffffffffffffffffffffffffffff1614619121576190ef7f1e1a7a634fc5cf86b5064b4cbae0375a472f64e8e390366b98cc2cc10d35e0f560001b616e63565b6040517fd53d66ee00000000000000000000000000000000000000000000000000000000815260040160405180910390fd5b61914d7f2b1ad671eafd5379848cbaf19b9853b7bbc67b8832d44716ab694b54af51d4c260001b616e63565b6191797faf12dd079522f024da1a6d12c50224643899583b4d49603d5eed7928d56dec5160001b616e63565b6191a57fa464bc2804caa200f852265e8aac0c860fe02ba3308f8e89e69c6d43aaf804c260001b616e63565b6000600260009054906101000a900473ffffffffffffffffffffffffffffffffffffffff1673ffffffffffffffffffffffffffffffffffffffff16636a032cd48585306040518463ffffffff1660e01b81526004016192069392919061a596565b602060405180830381600087803b15801561922057600080fd5b505af1158015619234573d6000803e3d6000fd5b505050506040513d601f19601f820116820180604052508101906192589190619c12565b90506192867f86cdb45b80f33330f5709558e1f532b168f856d3f3ac59e35174385b76221cf160001b616e63565b6192b27f35851906b15888569a27b798bf93f1279edda0c6e697aad1fd11d1f4bb1b14cc60001b616e63565b806008846040516192c3919061a347565b908152602001604051809103902060006101000a81548173ffffffffffffffffffffffffffffffffffffffff021916908373ffffffffffffffffffffffffffffffffffffffff16021790555061933b7fc3bf229a27e64615a178bb58baa74b82bb485f2c3a11c29415221007c97ffcc060001b616e63565b6193677f173bfeddc8562f92a306d299ec996d2da6daf56053e2a1527f527d9f589a7da460001b616e63565b8091505092915050565b61939d7fb87497799f411601c8efb616f586384855b0745c398eef29e72d780c8279a45160001b616e63565b6193c97fbda4715f618200ea0ca977fd0a9a92a9bbb420d6bdc1e8a9dbe11add2795e95d60001b616e63565b6193f57fa22442227c3653d1543e9e46facded6708a2edd7bcf33dce521c0e7492907aa660001b616e63565b6000601260008473ffffffffffffffffffffffffffffffffffffffff1673ffffffffffffffffffffffffffffffffffffffff16815260200190815260200160002090506194647f14fc15eb226c9b91e7423bdaf2c68769c6bc1779703dd07fde0acc312a9514ad60001b616e63565b6194907f8988924fadef4231ccbeb8f20349effd137e2bedc73497ad354faf4e0cd279f060001b616e63565b60005b8180549050811015619632576194cb7ff0c825022294409dcb96b62f3f0f093cba53c60318de2fc2fc6b6ee8bed538dc60001b616e63565b6194f77f647ee7a6e3e8b4db2022b63871d2b13a16857ab851b04ee91301f9c8cd64c5dc60001b616e63565b8273ffffffffffffffffffffffffffffffffffffffff168282815481106195215761952061aab6565b5b9060005260206000200160009054906101000a900473ffffffffffffffffffffffffffffffffffffffff1673ffffffffffffffffffffffffffffffffffffffff1614156195f3576195947f1cf0ad13cff52c04a31e48d038e843c3b315fdab4ee49516af91a57641602a9b60001b616e63565b6195c07f20c13321811256e447a38234e7d01d897fbbe7bc3d7b2c3306441757f9378d4160001b616e63565b6195ec7fd31294b4c8debaab3aaba20492f92e1c1ebf3e6dd1c4b26081e0ac3e35d6f85060001b616e63565b50506196ef565b61961f7f0855210fe699a4daaf6c011b94b12c0566af3dc8b1b173084beb2c0445a21e4460001b616e63565b808061962a9061a98b565b915050619493565b5061965f7f349f2515c7ac947755d9898c368c6c3af5b8952a096ad82a0ecad2dac140b01260001b616e63565b61968b7f6bf595aa7d137f8f6dcd1363b433ee7faf1ef8fdb3b3e19378804cb56b9cb7f960001b616e63565b80829080600181540180825580915050600190039060005260206000200160009091909190916101000a81548173ffffffffffffffffffffffffffffffffffffffff021916908373ffffffffffffffffffffffffffffffffffffffff160217905550505b5050565b60008082905060005b845181101561973e576197298286838151811061971c5761971b61aab6565b5b6020026020010151619821565b915080806197369061a98b565b9150506196fc565b508091505092915050565b6060600060016197588461984c565b01905060008167ffffffffffffffff8111156197775761977661aae5565b5b6040519080825280601f01601f1916602001820160405280156197a95781602001600182028036833780820191505090505b509050600082602001820190505b600115619816578080600190039150507f3031323334353637383961626364656600000000000000000000000000000000600a86061a8153600a8581619800576197ff61aa58565b5b049450600085141561981157619816565b6197b7565b819350505050919050565b600081831061983957619834828461999f565b619844565b619843838361999f565b5b905092915050565b600080600090507a184f03e93ff9f4daa797ed6e38ed64bf6a1f01000000000000000083106198aa577a184f03e93ff9f4daa797ed6e38ed64bf6a1f01000000000000000083816198a05761989f61aa58565b5b0492506040810190505b6d04ee2d6d415b85acef810000000083106198e7576d04ee2d6d415b85acef810000000083816198dd576198dc61aa58565b5b0492506020810190505b662386f26fc10000831061991657662386f26fc10000838161990c5761990b61aa58565b5b0492506010810190505b6305f5e100831061993f576305f5e10083816199355761993461aa58565b5b0492506008810190505b612710831061996457612710838161995a5761995961aa58565b5b0492506004810190505b60648310619987576064838161997d5761997c61aa58565b5b0492506002810190505b600a8310619996576001810190505b80915050919050565b600082600052816020526040600020905092915050565b8280546199c29061a928565b90600052602060002090601f0160209004810192826199e45760008555619a2b565b82601f106199fd57805160ff1916838001178555619a2b565b82800160010185558215619a2b579182015b82811115619a2a578251825591602001919060010190619a0f565b5b509050619a389190619a3c565b5090565b5b80821115619a55576000816000905550600101619a3d565b5090565b6000619a6c619a678461a6a5565b61a680565b90508083825260208201905082856020860282011115619a8f57619a8e61ab19565b5b60005b85811015619abf5781619aa58882619b78565b845260208401935060208301925050600181019050619a92565b5050509392505050565b6000619adc619ad78461a6d1565b61a680565b905082815260208101848484011115619af857619af761ab1e565b5b619b0384828561a8e6565b509392505050565b600081359050619b1a8161ab77565b92915050565b600081519050619b2f8161ab77565b92915050565b600082601f830112619b4a57619b4961ab14565b5b8135619b5a848260208601619a59565b91505092915050565b600081359050619b728161ab8e565b92915050565b600081359050619b878161aba5565b92915050565b600082601f830112619ba257619ba161ab14565b5b8135619bb2848260208601619ac9565b91505092915050565b600081359050619bca8161abbc565b92915050565b600081519050619bdf8161abbc565b92915050565b600060208284031215619bfb57619bfa61ab28565b5b6000619c0984828501619b0b565b91505092915050565b600060208284031215619c2857619c2761ab28565b5b6000619c3684828501619b20565b91505092915050565b60008060408385031215619c5657619c5561ab28565b5b6000619c6485828601619b0b565b9250506020619c7585828601619b0b565b9150509250929050565b600080600060608486031215619c9857619c9761ab28565b5b6000619ca686828701619b0b565b9350506020619cb786828701619b0b565b925050604084013567ffffffffffffffff811115619cd857619cd761ab23565b5b619ce486828701619b35565b9150509250925092565b600080600060608486031215619d0757619d0661ab28565b5b6000619d1586828701619b0b565b9350506020619d2686828701619b0b565b9250506040619d3786828701619bbb565b9150509250925092565b60008060408385031215619d5857619d5761ab28565b5b6000619d6685828601619b0b565b9250506020619d7785828601619b63565b9150509250929050565b600080600060608486031215619d9a57619d9961ab28565b5b6000619da886828701619b0b565b935050602084013567ffffffffffffffff811115619dc957619dc861ab23565b5b619dd586828701619b8d565b925050604084013567ffffffffffffffff811115619df657619df561ab23565b5b619e0286828701619b8d565b9150509250925092565b60008060408385031215619e2357619e2261ab28565b5b6000619e3185828601619b0b565b9250506020619e4285828601619bbb565b9150509250929050565b600080600060608486031215619e6557619e6461ab28565b5b6000619e7386828701619b0b565b9350506020619e8486828701619bbb565b925050604084013567ffffffffffffffff811115619ea557619ea461ab23565b5b619eb186828701619b35565b9150509250925092565b60008060008060808587031215619ed557619ed461ab28565b5b6000619ee387828801619b0b565b9450506020619ef487828801619bbb565b935050604085013567ffffffffffffffff811115619f1557619f1461ab23565b5b619f2187828801619b8d565b925050606085013567ffffffffffffffff811115619f4257619f4161ab23565b5b619f4e87828801619b8d565b91505092959194509250565b600080600080600060a08688031215619f7657619f7561ab28565b5b6000619f8488828901619b0b565b9550506020619f9588828901619bbb565b9450506040619fa688828901619bbb565b9350506060619fb788828901619b78565b9250506080619fc888828901619bbb565b9150509295509295909350565b600060208284031215619feb57619fea61ab28565b5b6000619ff984828501619b78565b91505092915050565b60006020828403121561a0185761a01761ab28565b5b600082013567ffffffffffffffff81111561a0365761a03561ab23565b5b61a04284828501619b8d565b91505092915050565b60006020828403121561a0615761a06061ab28565b5b600061a06f84828501619bbb565b91505092915050565b60006020828403121561a08e5761a08d61ab28565b5b600061a09c84828501619bd0565b91505092915050565b6000806040838503121561a0bc5761a0bb61ab28565b5b600061a0ca85828601619bbb565b925050602061a0db85828601619b0b565b9150509250929050565b6000806040838503121561a0fc5761a0fb61ab28565b5b600061a10a85828601619bbb565b925050602061a11b85828601619bbb565b9150509250929050565b60008060006060848603121561a13e5761a13d61ab28565b5b600061a14c86828701619bbb565b935050602061a15d86828701619bbb565b925050604061a16e86828701619bbb565b9150509250925092565b61a1818161a85e565b82525050565b61a19861a1938261a85e565b61a9d4565b82525050565b61a1a78161a870565b82525050565b61a1b68161a87c565b82525050565b61a1c58161a8b0565b82525050565b600061a1d68261a717565b61a1e0818561a72d565b935061a1f081856020860161a8f5565b61a1f98161ab2d565b840191505092915050565b600061a20f8261a717565b61a219818561a73e565b935061a22981856020860161a8f5565b80840191505092915050565b6000815461a2428161a928565b61a24c818661a73e565b9450600182166000811461a267576001811461a2785761a2ab565b60ff1983168652818601935061a2ab565b61a2818561a702565b60005b8381101561a2a35781548189015260018201915060208101905061a284565b838801955050505b50505092915050565b600061a2c160028361a73e565b915061a2cc8261ab4b565b600282019050919050565b600061a2e460008361a722565b915061a2ef8261ab74565b600082019050919050565b600061a30760008361a73e565b915061a3128261ab74565b600082019050919050565b61a3268161a8a6565b82525050565b600061a338828461a187565b60148201915081905092915050565b600061a353828461a204565b915081905092915050565b600061a36a828561a204565b915061a376828461a204565b91508190509392505050565b600061a38e828561a204565b915061a3998261a2b4565b915061a3a5828461a204565b91508190509392505050565b600061a3bd828461a235565b915081905092915050565b600061a3d38261a2d7565b9150819050919050565b600061a3e88261a2fa565b9150819050919050565b600060208201905061a407600083018461a178565b92915050565b600060408201905061a422600083018561a178565b61a42f602083018461a178565b9392505050565b60006101008201905061a44c600083018b61a178565b61a459602083018a61a178565b61a466604083018961a19e565b61a473606083018861a31d565b61a480608083018761a31d565b61a48d60a083018661a31d565b61a49a60c083018561a31d565b61a4a760e083018461a31d565b9998505050505050505050565b600060408201905061a4c9600083018561a178565b61a4d6602083018461a31d565b9392505050565b600060c08201905061a4f2600083018961a178565b61a4ff602083018861a31d565b61a50c604083018761a31d565b61a519606083018661a31d565b61a526608083018561a31d565b61a53360a083018461a31d565b979650505050505050565b600060208201905061a553600083018461a19e565b92915050565b600060208201905061a56e600083018461a1bc565b92915050565b6000602082019050818103600083015261a58e818461a1cb565b905092915050565b6000606082019050818103600083015261a5b0818661a1cb565b9050818103602083015261a5c4818561a1cb565b905061a5d3604083018461a178565b949350505050565b600060208201905061a5f0600083018461a31d565b92915050565b600060608201905061a60b600083018661a31d565b61a618602083018561a1ad565b61a625604083018461a31d565b949350505050565b600060a08201905061a642600083018861a31d565b61a64f602083018761a31d565b61a65c604083018661a31d565b61a669606083018561a31d565b61a676608083018461a31d565b9695505050505050565b600061a68a61a69b565b905061a696828261a95a565b919050565b6000604051905090565b600067ffffffffffffffff82111561a6c05761a6bf61aae5565b5b602082029050602081019050919050565b600067ffffffffffffffff82111561a6ec5761a6eb61aae5565b5b61a6f58261ab2d565b9050602081019050919050565b60008190508160005260206000209050919050565b600081519050919050565b600081905092915050565b600082825260208201905092915050565b600081905092915050565b600061a7548261a8a6565b915061a75f8361a8a6565b9250827fffffffffffffffffffffffffffffffffffffffffffffffffffffffffffffffff0382111561a7945761a79361aa29565b5b828201905092915050565b600061a7aa8261a8a6565b915061a7b58361a8a6565b92508261a7c55761a7c461aa58565b5b828204905092915050565b600061a7db8261a8a6565b915061a7e68361a8a6565b9250817fffffffffffffffffffffffffffffffffffffffffffffffffffffffffffffffff048311821515161561a81f5761a81e61aa29565b5b828202905092915050565b600061a8358261a8a6565b915061a8408361a8a6565b92508282101561a8535761a85261aa29565b5b828203905092915050565b600061a8698261a886565b9050919050565b60008115159050919050565b6000819050919050565b600073ffffffffffffffffffffffffffffffffffffffff82169050919050565b6000819050919050565b600061a8bb8261a8c2565b9050919050565b600061a8cd8261a8d4565b9050919050565b600061a8df8261a886565b9050919050565b82818337600083830152505050565b60005b8381101561a91357808201518184015260208101905061a8f8565b8381111561a922576000848401525b50505050565b6000600282049050600182168061a94057607f821691505b6020821081141561a9545761a95361aa87565b5b50919050565b61a9638261ab2d565b810181811067ffffffffffffffff8211171561a9825761a98161aae5565b5b80604052505050565b600061a9968261a8a6565b91507fffffffffffffffffffffffffffffffffffffffffffffffffffffffffffffffff82141561a9c95761a9c861aa29565b5b600182019050919050565b600061a9df8261a9e6565b9050919050565b600061a9f18261ab3e565b9050919050565b600061aa038261a8a6565b915061aa0e8361a8a6565b92508261aa1e5761aa1d61aa58565b5b828206905092915050565b7f4e487b7100000000000000000000000000000000000000000000000000000000600052601160045260246000fd5b7f4e487b7100000000000000000000000000000000000000000000000000000000600052601260045260246000fd5b7f4e487b7100000000000000000000000000000000000000000000000000000000600052602260045260246000fd5b7f4e487b7100000000000000000000000000000000000000000000000000000000600052603260045260246000fd5b7f4e487b7100000000000000000000000000000000000000000000000000000000600052604160045260246000fd5b600080fd5b600080fd5b600080fd5b600080fd5b600080fd5b6000601f19601f8301169050919050565b60008160601b9050919050565b7f2023000000000000000000000000000000000000000000000000000000000000600082015250565b50565b61ab808161a85e565b811461ab8b57600080fd5b50565b61ab978161a870565b811461aba257600080fd5b50565b61abae8161a87c565b811461abb957600080fd5b50565b61abc58161a8a6565b811461abd057600080fd5b5056fea26469706673582212204e47b84209c612d962d7b25b8032eac992a57492294c562bbbcd8ae04b54c78864736f6c63430008070033",
  "contractName": "Curves",
  "deployedLinkReferences": {},
  "linkReferences": {},
  "sourceName": "contracts/Curves.sol"
}