{
  "_format": "hh-sol-artifact-1",
  "abi": [
    {
      "inputs": [
        {
          "internalType": "string",
          "name": "name_",
          "type": "string"
        },
        {
          "internalType": "string",
          "name": "symbol_",
          "type": "string"
        },
        {
          "internalType": "address",
          "name": "owner",
          "type": "address"
        }
      ],
      "stateMutability": "nonpayable",
      "type": "constructor"
    },
    {
      "anonymous": false,
      "inputs": [
        {
          "indexed": true,
          "internalType": "address",
          "name": "owner",
          "type": "address"
        },
        {
          "indexed": true,
          "internalType": "address",
          "name": "spender",
          "type": "address"
        },
        {
          "indexed": false,
          "internalType": "uint256",
          "name": "value",
          "type": "uint256"
        }
      ],
      "name": "Approval",
      "type": "event"
    },
    {
      "anonymous": false,
      "inputs": [
        {
          "indexed": true,
          "internalType": "address",
          "name": "previousOwner",
          "type": "address"
        },
        {
          "indexed": true,
          "internalType": "address",
          "name": "newOwner",
          "type": "address"
        }
      ],
      "name": "OwnershipTransferred",
      "type": "event"
    },
    {
      "anonymous": false,
      "inputs": [
        {
          "indexed": true,
          "internalType": "address",
          "name": "from",
          "type": "address"
        },
        {
          "indexed": true,
          "internalType": "address",
          "name": "to",
          "type": "address"
        },
        {
          "indexed": false,
          "internalType": "uint256",
          "name": "value",
          "type": "uint256"
        }
      ],
      "name": "Transfer",
      "type": "event"
    },
    {
      "inputs": [
        {
          "internalType": "address",
          "name": "owner",
          "type": "address"
        },
        {
          "internalType": "address",
          "name": "spender",
          "type": "address"
        }
      ],
      "name": "allowance",
      "outputs": [
        {
          "internalType": "uint256",
          "name": "",
          "type": "uint256"
        }
      ],
      "stateMutability": "view",
      "type": "function"
    },
    {
      "inputs": [
        {
          "internalType": "address",
          "name": "spender",
          "type": "address"
        },
        {
          "internalType": "uint256",
          "name": "amount",
          "type": "uint256"
        }
      ],
      "name": "approve",
      "outputs": [
        {
          "internalType": "bool",
          "name": "",
          "type": "bool"
        }
      ],
      "stateMutability": "nonpayable",
      "type": "function"
    },
    {
      "inputs": [
        {
          "internalType": "address",
          "name": "account",
          "type": "address"
        }
      ],
      "name": "balanceOf",
      "outputs": [
        {
          "internalType": "uint256",
          "name": "",
          "type": "uint256"
        }
      ],
      "stateMutability": "view",
      "type": "function"
    },
    {
      "inputs": [
        {
          "internalType": "address",
          "name": "from",
          "type": "address"
        },
        {
          "internalType": "uint256",
          "name": "amount",
          "type": "uint256"
        }
      ],
      "name": "burn",
      "outputs": [],
      "stateMutability": "nonpayable",
      "type": "function"
    },
    {
      "inputs": [],
      "name": "decimals",
      "outputs": [
        {
          "internalType": "uint8",
          "name": "",
          "type": "uint8"
        }
      ],
      "stateMutability": "view",
      "type": "function"
    },
    {
      "inputs": [
        {
          "internalType": "address",
          "name": "spender",
          "type": "address"
        },
        {
          "internalType": "uint256",
          "name": "subtractedValue",
          "type": "uint256"
        }
      ],
      "name": "decreaseAllowance",
      "outputs": [
        {
          "internalType": "bool",
          "name": "",
          "type": "bool"
        }
      ],
      "stateMutability": "nonpayable",
      "type": "function"
    },
    {
      "inputs": [
        {
          "internalType": "address",
          "name": "spender",
          "type": "address"
        },
        {
          "internalType": "uint256",
          "name": "addedValue",
          "type": "uint256"
        }
      ],
      "name": "increaseAllowance",
      "outputs": [
        {
          "internalType": "bool",
          "name": "",
          "type": "bool"
        }
      ],
      "stateMutability": "nonpayable",
      "type": "function"
    },
    {
      "inputs": [
        {
          "internalType": "address",
          "name": "to",
          "type": "address"
        },
        {
          "internalType": "uint256",
          "name": "amount",
          "type": "uint256"
        }
      ],
      "name": "mint",
      "outputs": [],
      "stateMutability": "nonpayable",
      "type": "function"
    },
    {
      "inputs": [],
      "name": "name",
      "outputs": [
        {
          "internalType": "string",
          "name": "",
          "type": "string"
        }
      ],
      "stateMutability": "view",
      "type": "function"
    },
    {
      "inputs": [],
      "name": "owner",
      "outputs": [
        {
          "internalType": "address",
          "name": "",
          "type": "address"
        }
      ],
      "stateMutability": "view",
      "type": "function"
    },
    {
      "inputs": [],
      "name": "renounceOwnership",
      "outputs": [],
      "stateMutability": "nonpayable",
      "type": "function"
    },
    {
      "inputs": [],
      "name": "symbol",
      "outputs": [
        {
          "internalType": "string",
          "name": "",
          "type": "string"
        }
      ],
      "stateMutability": "view",
      "type": "function"
    },
    {
      "inputs": [],
      "name": "totalSupply",
      "outputs": [
        {
          "internalType": "uint256",
          "name": "",
          "type": "uint256"
        }
      ],
      "stateMutability": "view",
      "type": "function"
    },
    {
      "inputs": [
        {
          "internalType": "address",
          "name": "to",
          "type": "address"
        },
        {
          "internalType": "uint256",
          "name": "amount",
          "type": "uint256"
        }
      ],
      "name": "transfer",
      "outputs": [
        {
          "internalType": "bool",
          "name": "",
          "type": "bool"
        }
      ],
      "stateMutability": "nonpayable",
      "type": "function"
    },
    {
      "inputs": [
        {
          "internalType": "address",
          "name": "from",
          "type": "address"
        },
        {
          "internalType": "address",
          "name": "to",
          "type": "address"
        },
        {
          "internalType": "uint256",
          "name": "amount",
          "type": "uint256"
        }
      ],
      "name": "transferFrom",
      "outputs": [
        {
          "internalType": "bool",
          "name": "",
          "type": "bool"
        }
      ],
      "stateMutability": "nonpayable",
      "type": "function"
    },
    {
      "inputs": [
        {
          "internalType": "address",
          "name": "newOwner",
          "type": "address"
        }
      ],
      "name": "transferOwnership",
      "outputs": [],
      "stateMutability": "nonpayable",
      "type": "function"
    }
  ],
  "bytecode": "0x60806040523480156200001157600080fd5b506040516200248e3803806200248e8339818101604052810190620000379190620004ab565b828281600390805190602001906200005192919062000366565b5080600490805190602001906200006a92919062000366565b5050506200008d620000816200014360201b60201c565b6200014b60201b60201c565b620000c17f92e01e9363900e2982cb06542c1538f6c50bbeb225ced7a2cd0a60d4ce6429e560001b6200021160201b60201c565b620000f57fe349d2a3cfe6531612aaee7ad296da68fa6a88c7f37f3deeef2987e4edcbd6d960001b6200021160201b60201c565b620001297fda1c83000ab666d55a75a597802453f3aab86ed94d777136f4fe0da76c06c7da60001b6200021160201b60201c565b6200013a816200021460201b60201c565b50505062000832565b600033905090565b6000600560009054906101000a900473ffffffffffffffffffffffffffffffffffffffff16905081600560006101000a81548173ffffffffffffffffffffffffffffffffffffffff021916908373ffffffffffffffffffffffffffffffffffffffff1602179055508173ffffffffffffffffffffffffffffffffffffffff168173ffffffffffffffffffffffffffffffffffffffff167f8be0079c531659141344cd1fd0a4f28419497f9722a3daafe3b4186f6b6457e060405160405180910390a35050565b50565b62000224620002ab60201b60201c565b600073ffffffffffffffffffffffffffffffffffffffff168173ffffffffffffffffffffffffffffffffffffffff16141562000297576040517f08c379a00000000000000000000000000000000000000000000000000000000081526004016200028e9062000593565b60405180910390fd5b620002a8816200014b60201b60201c565b50565b620002bb6200014360201b60201c565b73ffffffffffffffffffffffffffffffffffffffff16620002e16200033c60201b60201c565b73ffffffffffffffffffffffffffffffffffffffff16146200033a576040517f08c379a00000000000000000000000000000000000000000000000000000000081526004016200033190620005b5565b60405180910390fd5b565b6000600560009054906101000a900473ffffffffffffffffffffffffffffffffffffffff16905090565b8280546200037490620006b1565b90600052602060002090601f016020900481019282620003985760008555620003e4565b82601f10620003b357805160ff1916838001178555620003e4565b82800160010185558215620003e4579182015b82811115620003e3578251825591602001919060010190620003c6565b5b509050620003f39190620003f7565b5090565b5b8082111562000412576000816000905550600101620003f8565b5090565b60006200042d620004278462000600565b620005d7565b9050828152602081018484840111156200044c576200044b62000780565b5b620004598482856200067b565b509392505050565b600081519050620004728162000818565b92915050565b600082601f83011262000490576200048f6200077b565b5b8151620004a284826020860162000416565b91505092915050565b600080600060608486031215620004c757620004c66200078a565b5b600084015167ffffffffffffffff811115620004e857620004e762000785565b5b620004f68682870162000478565b935050602084015167ffffffffffffffff8111156200051a576200051962000785565b5b620005288682870162000478565b92505060406200053b8682870162000461565b9150509250925092565b60006200055460268362000636565b91506200056182620007a0565b604082019050919050565b60006200057b60208362000636565b91506200058882620007ef565b602082019050919050565b60006020820190508181036000830152620005ae8162000545565b9050919050565b60006020820190508181036000830152620005d0816200056c565b9050919050565b6000620005e3620005f6565b9050620005f18282620006e7565b919050565b6000604051905090565b600067ffffffffffffffff8211156200061e576200061d6200074c565b5b62000629826200078f565b9050602081019050919050565b600082825260208201905092915050565b600062000654826200065b565b9050919050565b600073ffffffffffffffffffffffffffffffffffffffff82169050919050565b60005b838110156200069b5780820151818401526020810190506200067e565b83811115620006ab576000848401525b50505050565b60006002820490506001821680620006ca57607f821691505b60208210811415620006e157620006e06200071d565b5b50919050565b620006f2826200078f565b810181811067ffffffffffffffff821117156200071457620007136200074c565b5b80604052505050565b7f4e487b7100000000000000000000000000000000000000000000000000000000600052602260045260246000fd5b7f4e487b7100000000000000000000000000000000000000000000000000000000600052604160045260246000fd5b600080fd5b600080fd5b600080fd5b600080fd5b6000601f19601f8301169050919050565b7f4f776e61626c653a206e6577206f776e657220697320746865207a65726f206160008201527f6464726573730000000000000000000000000000000000000000000000000000602082015250565b7f4f776e61626c653a2063616c6c6572206973206e6f7420746865206f776e6572600082015250565b620008238162000647565b81146200082f57600080fd5b50565b611c4c80620008426000396000f3fe608060405234801561001057600080fd5b50600436106101005760003560e01c8063715018a611610097578063a457c2d711610066578063a457c2d71461029d578063a9059cbb146102cd578063dd62ed3e146102fd578063f2fde38b1461032d57610100565b8063715018a61461023b5780638da5cb5b1461024557806395d89b41146102635780639dc29fac1461028157610100565b8063313ce567116100d3578063313ce567146101a157806339509351146101bf57806340c10f19146101ef57806370a082311461020b57610100565b806306fdde0314610105578063095ea7b31461012357806318160ddd1461015357806323b872dd14610171575b600080fd5b61010d610349565b60405161011a919061152e565b60405180910390f35b61013d6004803603810190610138919061129f565b6103db565b60405161014a9190611513565b60405180910390f35b61015b6103fe565b60405161016891906116d0565b60405180910390f35b61018b6004803603810190610186919061124c565b610408565b6040516101989190611513565b60405180910390f35b6101a9610437565b6040516101b691906116eb565b60405180910390f35b6101d960048036038101906101d4919061129f565b610440565b6040516101e69190611513565b60405180910390f35b6102096004803603810190610204919061129f565b610477565b005b610225600480360381019061022091906111df565b610511565b60405161023291906116d0565b60405180910390f35b610243610559565b005b61024d61056d565b60405161025a91906114f8565b60405180910390f35b61026b610597565b604051610278919061152e565b60405180910390f35b61029b6004803603810190610296919061129f565b610629565b005b6102b760048036038101906102b2919061129f565b6106c3565b6040516102c49190611513565b60405180910390f35b6102e760048036038101906102e2919061129f565b61073a565b6040516102f49190611513565b60405180910390f35b6103176004803603810190610312919061120c565b61075d565b60405161032491906116d0565b60405180910390f35b610347600480360381019061034291906111df565b6107e4565b005b60606003805461035890611800565b80601f016020809104026020016040519081016040528092919081815260200182805461038490611800565b80156103d15780601f106103a6576101008083540402835291602001916103d1565b820191906000526020600020905b8154815290600101906020018083116103b457829003601f168201915b5050505050905090565b6000806103e6610868565b90506103f3818585610870565b600191505092915050565b6000600254905090565b600080610413610868565b9050610420858285610a3b565b61042b858585610ac7565b60019150509392505050565b60006012905090565b60008061044b610868565b905061046c81858561045d858961075d565b6104679190611722565b610870565b600191505092915050565b61047f610d3f565b6104ab7f5ffd34c3b31f10238970c80f541e383c4df919dbd25733dc77c1314bd9827fe760001b610dbd565b6104d77feceecd88f00d23b41666375499093bac270ec1d02555e9214d7e548f0ea5505260001b610dbd565b6105037f6da68dccd2b2bdd5b2924b2bd763d48d573b94e8051d2730d42025fdd8367f7f60001b610dbd565b61050d8282610dc0565b5050565b60008060008373ffffffffffffffffffffffffffffffffffffffff1673ffffffffffffffffffffffffffffffffffffffff168152602001908152602001600020549050919050565b610561610d3f565b61056b6000610f17565b565b6000600560009054906101000a900473ffffffffffffffffffffffffffffffffffffffff16905090565b6060600480546105a690611800565b80601f01602080910402602001604051908101604052809291908181526020018280546105d290611800565b801561061f5780601f106105f45761010080835404028352916020019161061f565b820191906000526020600020905b81548152906001019060200180831161060257829003601f168201915b5050505050905090565b610631610d3f565b61065d7f0fec7d14096bc47e6f31e38674f60d74244cffb9e84ba1152e21c2da1d1bad6d60001b610dbd565b6106897fe57d18f40efdfb331aa844791c6a0cfdfedd19c251db4600b6e7e10efb44d5e560001b610dbd565b6106b57facce6d3afa3cc93379364b0746e62900569227c12834667e7b233aca63fea17460001b610dbd565b6106bf8282610fdd565b5050565b6000806106ce610868565b905060006106dc828661075d565b905083811015610721576040517f08c379a000000000000000000000000000000000000000000000000000000000815260040161071890611690565b60405180910390fd5b61072e8286868403610870565b60019250505092915050565b600080610745610868565b9050610752818585610ac7565b600191505092915050565b6000600160008473ffffffffffffffffffffffffffffffffffffffff1673ffffffffffffffffffffffffffffffffffffffff16815260200190815260200160002060008373ffffffffffffffffffffffffffffffffffffffff1673ffffffffffffffffffffffffffffffffffffffff16815260200190815260200160002054905092915050565b6107ec610d3f565b600073ffffffffffffffffffffffffffffffffffffffff168173ffffffffffffffffffffffffffffffffffffffff16141561085c576040517f08c379a000000000000000000000000000000000000000000000000000000000815260040161085390611590565b60405180910390fd5b61086581610f17565b50565b600033905090565b600073ffffffffffffffffffffffffffffffffffffffff168373ffffffffffffffffffffffffffffffffffffffff1614156108e0576040517f08c379a00000000000000000000000000000000000000000000000000000000081526004016108d790611670565b60405180910390fd5b600073ffffffffffffffffffffffffffffffffffffffff168273ffffffffffffffffffffffffffffffffffffffff161415610950576040517f08c379a0000000000000000000000000000000000000000000000000000000008152600401610947906115b0565b60405180910390fd5b80600160008573ffffffffffffffffffffffffffffffffffffffff1673ffffffffffffffffffffffffffffffffffffffff16815260200190815260200160002060008473ffffffffffffffffffffffffffffffffffffffff1673ffffffffffffffffffffffffffffffffffffffff168152602001908152602001600020819055508173ffffffffffffffffffffffffffffffffffffffff168373ffffffffffffffffffffffffffffffffffffffff167f8c5be1e5ebec7d5bd14f71427d1e84f3dd0314c0f7b2291e5b200ac8c7c3b92583604051610a2e91906116d0565b60405180910390a3505050565b6000610a47848461075d565b90507fffffffffffffffffffffffffffffffffffffffffffffffffffffffffffffffff8114610ac15781811015610ab3576040517f08c379a0000000000000000000000000000000000000000000000000000000008152600401610aaa906115d0565b60405180910390fd5b610ac08484848403610870565b5b50505050565b600073ffffffffffffffffffffffffffffffffffffffff168373ffffffffffffffffffffffffffffffffffffffff161415610b37576040517f08c379a0000000000000000000000000000000000000000000000000000000008152600401610b2e90611650565b60405180910390fd5b600073ffffffffffffffffffffffffffffffffffffffff168273ffffffffffffffffffffffffffffffffffffffff161415610ba7576040517f08c379a0000000000000000000000000000000000000000000000000000000008152600401610b9e90611550565b60405180910390fd5b610bb28383836111ab565b60008060008573ffffffffffffffffffffffffffffffffffffffff1673ffffffffffffffffffffffffffffffffffffffff16815260200190815260200160002054905081811015610c38576040517f08c379a0000000000000000000000000000000000000000000000000000000008152600401610c2f906115f0565b60405180910390fd5b8181036000808673ffffffffffffffffffffffffffffffffffffffff1673ffffffffffffffffffffffffffffffffffffffff16815260200190815260200160002081905550816000808573ffffffffffffffffffffffffffffffffffffffff1673ffffffffffffffffffffffffffffffffffffffff168152602001908152602001600020600082825401925050819055508273ffffffffffffffffffffffffffffffffffffffff168473ffffffffffffffffffffffffffffffffffffffff167fddf252ad1be2c89b69c2b068fc378daa952ba7f163c4a11628f55a4df523b3ef84604051610d2691906116d0565b60405180910390a3610d398484846111b0565b50505050565b610d47610868565b73ffffffffffffffffffffffffffffffffffffffff16610d6561056d565b73ffffffffffffffffffffffffffffffffffffffff1614610dbb576040517f08c379a0000000000000000000000000000000000000000000000000000000008152600401610db290611610565b60405180910390fd5b565b50565b600073ffffffffffffffffffffffffffffffffffffffff168273ffffffffffffffffffffffffffffffffffffffff161415610e30576040517f08c379a0000000000000000000000000000000000000000000000000000000008152600401610e27906116b0565b60405180910390fd5b610e3c600083836111ab565b8060026000828254610e4e9190611722565b92505081905550806000808473ffffffffffffffffffffffffffffffffffffffff1673ffffffffffffffffffffffffffffffffffffffff168152602001908152602001600020600082825401925050819055508173ffffffffffffffffffffffffffffffffffffffff16600073ffffffffffffffffffffffffffffffffffffffff167fddf252ad1be2c89b69c2b068fc378daa952ba7f163c4a11628f55a4df523b3ef83604051610eff91906116d0565b60405180910390a3610f13600083836111b0565b5050565b6000600560009054906101000a900473ffffffffffffffffffffffffffffffffffffffff16905081600560006101000a81548173ffffffffffffffffffffffffffffffffffffffff021916908373ffffffffffffffffffffffffffffffffffffffff1602179055508173ffffffffffffffffffffffffffffffffffffffff168173ffffffffffffffffffffffffffffffffffffffff167f8be0079c531659141344cd1fd0a4f28419497f9722a3daafe3b4186f6b6457e060405160405180910390a35050565b600073ffffffffffffffffffffffffffffffffffffffff168273ffffffffffffffffffffffffffffffffffffffff16141561104d576040517f08c379a000000000000000000000000000000000000000000000000000000000815260040161104490611630565b60405180910390fd5b611059826000836111ab565b60008060008473ffffffffffffffffffffffffffffffffffffffff1673ffffffffffffffffffffffffffffffffffffffff168152602001908152602001600020549050818110156110df576040517f08c379a00000000000000000000000000000000000000000000000000000000081526004016110d690611570565b60405180910390fd5b8181036000808573ffffffffffffffffffffffffffffffffffffffff1673ffffffffffffffffffffffffffffffffffffffff1681526020019081526020016000208190555081600260008282540392505081905550600073ffffffffffffffffffffffffffffffffffffffff168373ffffffffffffffffffffffffffffffffffffffff167fddf252ad1be2c89b69c2b068fc378daa952ba7f163c4a11628f55a4df523b3ef8460405161119291906116d0565b60405180910390a36111a6836000846111b0565b505050565b505050565b505050565b6000813590506111c481611be8565b92915050565b6000813590506111d981611bff565b92915050565b6000602082840312156111f5576111f4611890565b5b6000611203848285016111b5565b91505092915050565b6000806040838503121561122357611222611890565b5b6000611231858286016111b5565b9250506020611242858286016111b5565b9150509250929050565b60008060006060848603121561126557611264611890565b5b6000611273868287016111b5565b9350506020611284868287016111b5565b9250506040611295868287016111ca565b9150509250925092565b600080604083850312156112b6576112b5611890565b5b60006112c4858286016111b5565b92505060206112d5858286016111ca565b9150509250929050565b6112e881611778565b82525050565b6112f78161178a565b82525050565b600061130882611706565b6113128185611711565b93506113228185602086016117cd565b61132b81611895565b840191505092915050565b6000611343602383611711565b915061134e826118a6565b604082019050919050565b6000611366602283611711565b9150611371826118f5565b604082019050919050565b6000611389602683611711565b915061139482611944565b604082019050919050565b60006113ac602283611711565b91506113b782611993565b604082019050919050565b60006113cf601d83611711565b91506113da826119e2565b602082019050919050565b60006113f2602683611711565b91506113fd82611a0b565b604082019050919050565b6000611415602083611711565b915061142082611a5a565b602082019050919050565b6000611438602183611711565b915061144382611a83565b604082019050919050565b600061145b602583611711565b915061146682611ad2565b604082019050919050565b600061147e602483611711565b915061148982611b21565b604082019050919050565b60006114a1602583611711565b91506114ac82611b70565b604082019050919050565b60006114c4601f83611711565b91506114cf82611bbf565b602082019050919050565b6114e3816117b6565b82525050565b6114f2816117c0565b82525050565b600060208201905061150d60008301846112df565b92915050565b600060208201905061152860008301846112ee565b92915050565b6000602082019050818103600083015261154881846112fd565b905092915050565b6000602082019050818103600083015261156981611336565b9050919050565b6000602082019050818103600083015261158981611359565b9050919050565b600060208201905081810360008301526115a98161137c565b9050919050565b600060208201905081810360008301526115c98161139f565b9050919050565b600060208201905081810360008301526115e9816113c2565b9050919050565b60006020820190508181036000830152611609816113e5565b9050919050565b6000602082019050818103600083015261162981611408565b9050919050565b600060208201905081810360008301526116498161142b565b9050919050565b600060208201905081810360008301526116698161144e565b9050919050565b6000602082019050818103600083015261168981611471565b9050919050565b600060208201905081810360008301526116a981611494565b9050919050565b600060208201905081810360008301526116c9816114b7565b9050919050565b60006020820190506116e560008301846114da565b92915050565b600060208201905061170060008301846114e9565b92915050565b600081519050919050565b600082825260208201905092915050565b600061172d826117b6565b9150611738836117b6565b9250827fffffffffffffffffffffffffffffffffffffffffffffffffffffffffffffffff0382111561176d5761176c611832565b5b828201905092915050565b600061178382611796565b9050919050565b60008115159050919050565b600073ffffffffffffffffffffffffffffffffffffffff82169050919050565b6000819050919050565b600060ff82169050919050565b60005b838110156117eb5780820151818401526020810190506117d0565b838111156117fa576000848401525b50505050565b6000600282049050600182168061181857607f821691505b6020821081141561182c5761182b611861565b5b50919050565b7f4e487b7100000000000000000000000000000000000000000000000000000000600052601160045260246000fd5b7f4e487b7100000000000000000000000000000000000000000000000000000000600052602260045260246000fd5b600080fd5b6000601f19601f8301169050919050565b7f45524332303a207472616e7366657220746f20746865207a65726f206164647260008201527f6573730000000000000000000000000000000000000000000000000000000000602082015250565b7f45524332303a206275726e20616d6f756e7420657863656564732062616c616e60008201527f6365000000000000000000000000000000000000000000000000000000000000602082015250565b7f4f776e61626c653a206e6577206f776e657220697320746865207a65726f206160008201527f6464726573730000000000000000000000000000000000000000000000000000602082015250565b7f45524332303a20617070726f766520746f20746865207a65726f20616464726560008201527f7373000000000000000000000000000000000000000000000000000000000000602082015250565b7f45524332303a20696e73756666696369656e7420616c6c6f77616e6365000000600082015250565b7f45524332303a207472616e7366657220616d6f756e742065786365656473206260008201527f616c616e63650000000000000000000000000000000000000000000000000000602082015250565b7f4f776e61626c653a2063616c6c6572206973206e6f7420746865206f776e6572600082015250565b7f45524332303a206275726e2066726f6d20746865207a65726f2061646472657360008201527f7300000000000000000000000000000000000000000000000000000000000000602082015250565b7f45524332303a207472616e736665722066726f6d20746865207a65726f20616460008201527f6472657373000000000000000000000000000000000000000000000000000000602082015250565b7f45524332303a20617070726f76652066726f6d20746865207a65726f2061646460008201527f7265737300000000000000000000000000000000000000000000000000000000602082015250565b7f45524332303a2064656372656173656420616c6c6f77616e63652062656c6f7760008201527f207a65726f000000000000000000000000000000000000000000000000000000602082015250565b7f45524332303a206d696e7420746f20746865207a65726f206164647265737300600082015250565b611bf181611778565b8114611bfc57600080fd5b50565b611c08816117b6565b8114611c1357600080fd5b5056fea26469706673582212204f5a7169be54042cba72862a8064b8f3cbb1f3404c068f9542f6aadb4d56c2ce64736f6c63430008070033",
  "contractName": "CurvesERC20",
  "deployedLinkReferences": {},
  "linkReferences": {},
  "sourceName": "contracts/CurvesERC20.sol"
}