{
  "_format": "hh-sol-artifact-1",
  "abi": [
    {
      "inputs": [],
      "stateMutability": "nonpayable",
      "type": "constructor"
    },
    {
      "inputs": [],
      "name": "NoFeesToClaim",
      "type": "error"
    },
    {
      "inputs": [],
      "name": "NoTokenHolders",
      "type": "error"
    },
    {
      "anonymous": false,
      "inputs": [
        {
          "indexed": true,
          "internalType": "address",
          "name": "token",
          "type": "address"
        },
        {
          "indexed": true,
          "internalType": "address",
          "name": "user",
          "type": "address"
        },
        {
          "indexed": false,
          "internalType": "uint256",
          "name": "amount",
          "type": "uint256"
        }
      ],
      "name": "FeesClaimed",
      "type": "event"
    },
    {
      "inputs": [
        {
          "internalType": "address",
          "name": "token",
          "type": "address"
        }
      ],
      "name": "addFees",
      "outputs": [],
      "stateMutability": "payable",
      "type": "function"
    },
    {
      "inputs": [
        {
          "internalType": "address",
          "name": "token",
          "type": "address"
        },
        {
          "internalType": "address",
          "name": "account",
          "type": "address"
        }
      ],
      "name": "balanceOf",
      "outputs": [
        {
          "internalType": "uint256",
          "name": "",
          "type": "uint256"
        }
      ],
      "stateMutability": "view",
      "type": "function"
    },
    {
      "inputs": [
        {
          "internalType": "address",
          "name": "token",
          "type": "address"
        }
      ],
      "name": "claimFees",
      "outputs": [],
      "stateMutability": "nonpayable",
      "type": "function"
    },
    {
      "inputs": [],
      "name": "curves",
      "outputs": [
        {
          "internalType": "contract Curves",
          "name": "",
          "type": "address"
        }
      ],
      "stateMutability": "view",
      "type": "function"
    },
    {
      "inputs": [
        {
          "internalType": "address",
          "name": "token",
          "type": "address"
        },
        {
          "internalType": "address",
          "name": "account",
          "type": "address"
        }
      ],
      "name": "getClaimableFees",
      "outputs": [
        {
          "internalType": "uint256",
          "name": "",
          "type": "uint256"
        }
      ],
      "stateMutability": "view",
      "type": "function"
    },
    {
      "inputs": [
        {
          "internalType": "address",
          "name": "",
          "type": "address"
        }
      ],
      "name": "managers",
      "outputs": [
        {
          "internalType": "bool",
          "name": "",
          "type": "bool"
        }
      ],
      "stateMutability": "view",
      "type": "function"
    },
    {
      "inputs": [
        {
          "internalType": "address",
          "name": "token",
          "type": "address"
        },
        {
          "internalType": "address",
          "name": "account",
          "type": "address"
        }
      ],
      "name": "onBalanceChange",
      "outputs": [],
      "stateMutability": "nonpayable",
      "type": "function"
    },
    {
      "inputs": [],
      "name": "owner",
      "outputs": [
        {
          "internalType": "address",
          "name": "",
          "type": "address"
        }
      ],
      "stateMutability": "view",
      "type": "function"
    },
    {
      "inputs": [
        {
          "internalType": "contract Curves",
          "name": "curves_",
          "type": "address"
        }
      ],
      "name": "setCurves",
      "outputs": [],
      "stateMutability": "nonpayable",
      "type": "function"
    },
    {
      "inputs": [
        {
          "internalType": "address",
          "name": "manager_",
          "type": "address"
        },
        {
          "internalType": "bool",
          "name": "value",
          "type": "bool"
        }
      ],
      "name": "setManager",
      "outputs": [],
      "stateMutability": "nonpayable",
      "type": "function"
    },
    {
      "inputs": [
        {
          "internalType": "address",
          "name": "token",
          "type": "address"
        }
      ],
      "name": "totalSupply",
      "outputs": [
        {
          "internalType": "uint256",
          "name": "",
          "type": "uint256"
        }
      ],
      "stateMutability": "view",
      "type": "function"
    },
    {
      "inputs": [
        {
          "internalType": "address",
          "name": "owner_",
          "type": "address"
        }
      ],
      "name": "transferOwnership",
      "outputs": [],
      "stateMutability": "nonpayable",
      "type": "function"
    },
    {
      "stateMutability": "payable",
      "type": "receive"
    }
  ],
  "bytecode": "0x60806040523480156200001157600080fd5b50620000467f74e7f17bdf2dee5187b97e95caa2efa63d4dfba3db3068d9fcb9cf8652bb137b60001b620001e060201b60201c565b6200007a7f49f70d99e08c1d1eb63178e5551a70f38b0622f666d38106946d9c078c1633b660001b620001e060201b60201c565b620000ae7f1368ff9ab92b3194be9ea5d89f8e39ed78ec009f97052ea82fcec20efa3ce82360001b620001e060201b60201c565b336000806101000a81548173ffffffffffffffffffffffffffffffffffffffff021916908373ffffffffffffffffffffffffffffffffffffffff160217905550620001227f3cf68a010911603c9b3554dd18a8cbbf79222e0a2b8408f1f01425d4bd643a6860001b620001e060201b60201c565b620001567f271ffb2a1270c270aab9d5cfc8e23cb78503a8b47a05d84350f1c5fe7adee59660001b620001e060201b60201c565b60011515600160003373ffffffffffffffffffffffffffffffffffffffff1673ffffffffffffffffffffffffffffffffffffffff16815260200190815260200160002060009054906101000a90505050620001da7fc18407850501e816f0f79b4b08b62bc89f14413e2506cc34a701143f68ad0f3e60001b620001e360201b60201c565b620001e6565b50565b50565b61206180620001f66000396000f3fe6080604052600436106100ab5760003560e01c8063e4dc2aa411610064578063e4dc2aa4146101a4578063ebf34712146101e1578063f079f3ea1461021e578063f2fde38b14610247578063f7888aec14610270578063fdff9b4d146102ad576100b2565b806315a0ea6a146100b75780631e22e073146100e05780635accf1751461010957806364e084bf146101345780638da5cb5b14610150578063a5e90eee1461017b576100b2565b366100b257005b600080fd5b3480156100c357600080fd5b506100de60048036038101906100d99190611bef565b6102ea565b005b3480156100ec57600080fd5b5061010760048036038101906101029190611c1c565b610706565b005b34801561011557600080fd5b5061011e610974565b60405161012b9190611d91565b60405180910390f35b61014e60048036038101906101499190611bef565b61099a565b005b34801561015c57600080fd5b50610165610d47565b6040516101729190611d32565b60405180910390f35b34801561018757600080fd5b506101a2600480360381019061019d9190611c5c565b610d6b565b005b3480156101b057600080fd5b506101cb60048036038101906101c69190611bef565b610efe565b6040516101d89190611dac565b60405180910390f35b3480156101ed57600080fd5b5061020860048036038101906102039190611c1c565b611122565b6040516102159190611dac565b60405180910390f35b34801561022a57600080fd5b5061024560048036038101906102409190611c9c565b6113cc565b005b34801561025357600080fd5b5061026e60048036038101906102699190611bef565b611494565b005b34801561027c57600080fd5b5061029760048036038101906102929190611c1c565b611617565b6040516102a49190611dac565b60405180910390f35b3480156102b957600080fd5b506102d460048036038101906102cf9190611bef565b611765565b6040516102e19190611d76565b60405180910390f35b6103167fc4c1ca9fba593b984e4ad81d55127c49d44683e96c61cd33bc2d8870de04701660001b611785565b6103427f230c6dbd9854f108fb15df64cc3e65190a75c97f8e577778787964ce53bc42bd60001b611785565b61036e7f3b757b60f29ca47e09efbdae19b3f7e4f8fef7b36c4e271a2c3bffc2cc07519760001b611785565b6103788133611788565b6103a47fdd1b2b202f4030e0c309f9d30a3ca33ad5ef5c368d8371ac69f266f8dc47da1e60001b611785565b6103d07f2e77ee29e6839b22d2c5702decaced3135c53f41600bab85a970f35e6e4223b860001b611785565b60006103dc8233611122565b905061040a7fdea716c2e79c4d951353ac1f072166a3aecd20afcefe4780e4fa4c58b279cbe060001b611785565b6104367fe5a8e78bc514680bfbfc35f5efcacba8ed86ca09e3c0a1c7a0d24bf5d4841d8460001b611785565b600081141561049d5761046b7f9afa59e9bf0039a1c2bf264ad5141f9428d58f803116411f5e4077483925138f60001b611785565b6040517f846d8c5c00000000000000000000000000000000000000000000000000000000815260040160405180910390fd5b6104c97f7725a5d1b3df9e085a466c90472dcd35619d4b3091c3f4764a323c1229d8e2a660001b611785565b6104f57f19dd7c75a81975f0999cd5959a6aee2f32453334911a052bd8c8959b368edc3c60001b611785565b6105217f804eb1cd34ec7abf7727a73b0dbdc13017d006d925033f5d80266c8779afe39760001b611785565b6000600360008473ffffffffffffffffffffffffffffffffffffffff1673ffffffffffffffffffffffffffffffffffffffff16815260200190815260200160002060020160003373ffffffffffffffffffffffffffffffffffffffff1673ffffffffffffffffffffffffffffffffffffffff168152602001908152602001600020819055506105d27ff915d4b0660cadbfcf22cfbea63acc419d562a6ee348d65c38d226e14ce72d1960001b611785565b6105fe7f68bb20081798070626fdfd97b9e190c8fd872d9eda4f4630d9b1aa0e9cacd3d460001b611785565b3373ffffffffffffffffffffffffffffffffffffffff166108fc829081150290604051600060405180830381858888f19350505050158015610644573d6000803e3d6000fd5b506106717f8b4d9531b271a590017e8b95b7b860c1539291b9842ed363c98f8d99dc20f42160001b611785565b61069d7ffea848e86edddeae869f544ca552b2c9be9e79abbd69969d5111c02c473da4e060001b611785565b3373ffffffffffffffffffffffffffffffffffffffff168273ffffffffffffffffffffffffffffffffffffffff167ffe3464cd748424446c37877c28ce5b700222c5bc9f90d908afcc4e5cb22707ff836040516106fa9190611dac565b60405180910390a35050565b6107327ff70e523a18e5e56509c660f9f75f9cfa0c3744040728ef2b1aca3b24e2c5c53b60001b611b98565b61075e7fd2a7fc3653d8f28a1991c495906547529c48d31d0ee1907e5263da1036033d7360001b611b98565b61078a7f3b7a0008dbe54fb81ee489f850789e1489231c0f0313e965a5b8695a8a615dd960001b611b98565b60011515600160003373ffffffffffffffffffffffffffffffffffffffff1673ffffffffffffffffffffffffffffffffffffffff16815260200190815260200160002060009054906101000a905050506108067f092fb8c21b140f5d8b11a9b28bc3e38a03aa5af1ec9fdec353ae58620212800460001b611b98565b6108327fded7fd9cf5aa5cba1857235a26b3f72a56151370dc5996da0da105fe54ee6c1360001b611785565b61085e7fbcc8443558ce08f19bfbb112311298b816995072517758c868a0330e65ce3b0860001b611785565b61088a7f8046998ed4cbfce9be0aefbc96ee4fde488d164f8a3fef075394a9054d2615bc60001b611785565b6000600360008473ffffffffffffffffffffffffffffffffffffffff1673ffffffffffffffffffffffffffffffffffffffff16815260200190815260200160002090506108f97f6d777845fc805a9b13b764649f469cfd59297ef6a1f6bddde08af090eafa6c0a60001b611785565b6109257fb45d2c4c0b227acc949909123f4484cc65485c086eb6a5776ae44c91d732fa8a60001b611785565b80600001548160010160008473ffffffffffffffffffffffffffffffffffffffff1673ffffffffffffffffffffffffffffffffffffffff16815260200190815260200160002081905550505050565b600260009054906101000a900473ffffffffffffffffffffffffffffffffffffffff1681565b6109c67ff70e523a18e5e56509c660f9f75f9cfa0c3744040728ef2b1aca3b24e2c5c53b60001b611b98565b6109f27fd2a7fc3653d8f28a1991c495906547529c48d31d0ee1907e5263da1036033d7360001b611b98565b610a1e7f3b7a0008dbe54fb81ee489f850789e1489231c0f0313e965a5b8695a8a615dd960001b611b98565b60011515600160003373ffffffffffffffffffffffffffffffffffffffff1673ffffffffffffffffffffffffffffffffffffffff16815260200190815260200160002060009054906101000a90505050610a9a7f092fb8c21b140f5d8b11a9b28bc3e38a03aa5af1ec9fdec353ae58620212800460001b611b98565b610ac67fd73a80eac067ee9868978481127a6cda4d92db6eedb2c500f399f295cfeae3c360001b611785565b610af27f6bf5d7bce2b6343126e7ff9dd654fe167dfa1aab24204ceecc3cd00d244b500f60001b611785565b610b1e7f293ad232a2209d551d344e17759acb0fe5eda6e8492c20ca3ad601e54a7df4b760001b611785565b6000610b2982610efe565b9050610b577fffe86e531b78ced8bfc109039441732dc4bccaa4455174d24908dc7d699de65260001b611785565b610b837f9799f1ac112df0ace20d4b3821248a81698cd55996a8d387a6e90c315ba3dc6160001b611785565b6000811415610bea57610bb87fd7541d3a8bf74234ad50a3ef6deece89ba921048305783fbafb63b96181cd45b60001b611785565b6040517f3c702ac400000000000000000000000000000000000000000000000000000000815260040160405180910390fd5b610c167fec686d14b097ed11dc1852e0e75a16c1652cbc6cc0c9b9551306b1b3bc1946e960001b611785565b610c427f89074be4f17ba2a976c4dbf1ad6c263d6b51aa7d9a7b47f6fb9ef1cee9e818a160001b611785565b610c6e7fb74c1eaeb028d304274116f8a04d5215b6847992aa1804bd976eb0a3e125e81160001b611785565b6000600360008473ffffffffffffffffffffffffffffffffffffffff1673ffffffffffffffffffffffffffffffffffffffff1681526020019081526020016000209050610cdd7ff082b5f3128ab2d089a33a3dcefb84c12cd8d7e33f740b9de2b5eb08f5f485f960001b611785565b610d097fc2e2210b8dc0e0e15656061978c5dee6627b71bb13849237fca23ee393454dd660001b611785565b81670de0b6b3a764000034610d1e9190611e4e565b610d289190611e1d565b816000016000828254610d3b9190611dc7565b92505081905550505050565b60008054906101000a900473ffffffffffffffffffffffffffffffffffffffff1681565b610d977f4fcac04b723ddc84cbfaad6493c1263c75c4dcdad1e5be2fcc39bfd9d0c9aec960001b611b98565b610dc37fcca1c812385a9edd42ae2639345472fbc6fb3f2c45ac198c75dd2895eb8bbb3260001b611b98565b610def7f8cb3d5655e4d5fa5bd2b1c69ba8e1e1ebf1b3dc7b5378bb14ad3458e75921eac60001b611b98565b60008054906101000a905050610e277ff43bc64bed64941de2be64f3f60909fa9aa68e91e87bdf1b7aa0225ea419c7bb60001b611b98565b610e537fef115b4592ec06ad6c54e99dda55f6a6a28a12057170634b04cf05dbccf8396360001b611b98565b610e7f7f639563676db1410662e83ae86f927fc7f14e49a9d7e8f1437f3c7a1f839318a360001b611b98565b610eab7f5360b0ad6f149e9d5e18a126ee702bad3d209d70e1a92d1707b33ecd6eea390860001b611b98565b801515600160008473ffffffffffffffffffffffffffffffffffffffff1673ffffffffffffffffffffffffffffffffffffffff16815260200190815260200160002060009054906101000a905050505050565b6000610f2c7fbfcb15fd05c2170d87a15eaacf426df89a03bb2d46252b457b105666cc649f7c60001b611785565b610f587f9703a172b45dd40b9f6168a0ea9612f2add500aa993b10ec425c5859cdbdaa4360001b611785565b610f847f544042c4084a2b783764c16c852f0d2c99c08e23e64e730c2cd0002fce98e2d260001b611785565b670de0b6b3a7640000600260009054906101000a900473ffffffffffffffffffffffffffffffffffffffff1673ffffffffffffffffffffffffffffffffffffffff16634bcaad0b84600260009054906101000a900473ffffffffffffffffffffffffffffffffffffffff166040518363ffffffff1660e01b815260040161100c929190611d4d565b60206040518083038186803b15801561102457600080fd5b505afa158015611038573d6000803e3d6000fd5b505050506040513d601f19601f8201168201806040525081019061105c9190611cc9565b600260009054906101000a900473ffffffffffffffffffffffffffffffffffffffff1673ffffffffffffffffffffffffffffffffffffffff166316593dcf856040518263ffffffff1660e01b81526004016110b79190611d32565b60206040518083038186803b1580156110cf57600080fd5b505afa1580156110e3573d6000803e3d6000fd5b505050506040513d601f19601f820116820180604052508101906111079190611cc9565b6111119190611ea8565b61111b9190611e4e565b9050919050565b60006111507f13915a868e7e9e85fc200c16b97b5a3ea5e456f563e8668ac2b7420a25ca758d60001b611785565b61117c7f9622fb7b4cba2f98b00087530f0af206be62cdda489ea17d03b3a9d9722a7ff260001b611785565b6111a87f47208ee2553f85bb489b7130838317edfe8a844f00fb0a2c2dcf02dd6951dba660001b611785565b6000600360008573ffffffffffffffffffffffffffffffffffffffff1673ffffffffffffffffffffffffffffffffffffffff16815260200190815260200160002090506112177f42187d33ff276a7f5d5faf524daf81690fcfaaee48fc7c993efdabe6cafae1ef60001b611785565b6112437f59e3fb66fdb2a075a8313c850cd8e0507e35f81d0034f63e4d4d22e5c71347fb60001b611785565b600061124f8585611617565b905061127d7f384001912108f8758e7e81619e79c1ef82a3342f117c3d4e3d578056c3ccd8bb60001b611785565b6112a97f37da2095c6f6833564b92101f40e2fd6020ddc520425fb49eb346cf7a50ab88060001b611785565b6000818360010160008773ffffffffffffffffffffffffffffffffffffffff1673ffffffffffffffffffffffffffffffffffffffff1681526020019081526020016000205484600001546112fd9190611ea8565b6113079190611e4e565b90506113357f4a68fb1abac3aeb9fe555315c51419c68182be6a0ef1533199e6dd5991fe156f60001b611785565b6113617f7d6ea258a26261144d370d6f7792e0163338297a2a680aba83147cee13d9cb3860001b611785565b8260020160008673ffffffffffffffffffffffffffffffffffffffff1673ffffffffffffffffffffffffffffffffffffffff16815260200190815260200160002054670de0b6b3a7640000826113b79190611e1d565b6113c19190611dc7565b935050505092915050565b6113f87ff2e81bc9d6e928056915bda3d5408b89ef361f4d940ed1aa385329f999bddc4f60001b611785565b6114247f9d4d83a049a7635cca366758208be22c53f3903306dec9cba8dc1dc612128d5660001b611785565b6114507ff5969bcbd36bfe096fed1f875e752819d7a6bbb2ffd8636e11c9921b733422cb60001b611785565b80600260006101000a81548173ffffffffffffffffffffffffffffffffffffffff021916908373ffffffffffffffffffffffffffffffffffffffff16021790555050565b6114c07f4fcac04b723ddc84cbfaad6493c1263c75c4dcdad1e5be2fcc39bfd9d0c9aec960001b611b98565b6114ec7fcca1c812385a9edd42ae2639345472fbc6fb3f2c45ac198c75dd2895eb8bbb3260001b611b98565b6115187f8cb3d5655e4d5fa5bd2b1c69ba8e1e1ebf1b3dc7b5378bb14ad3458e75921eac60001b611b98565b60008054906101000a9050506115507ff43bc64bed64941de2be64f3f60909fa9aa68e91e87bdf1b7aa0225ea419c7bb60001b611b98565b61157c7ff6224f0fd5f19e0a85a2fd32acd40291ccbb02594a279194380acd227bf82c2a60001b611b98565b6115a87fbb2aa5180e9f7fedb7a14dfb6bd8641a8aa972d49a3279d314dd9a25e1d3fdd060001b611b98565b6115d47f4d6b79315cb008014f9d6d4997f0b6e95eba005c1a5a6466894be71fb321cb7360001b611b98565b806000806101000a81548173ffffffffffffffffffffffffffffffffffffffff021916908373ffffffffffffffffffffffffffffffffffffffff16021790555050565b60006116457f8cf9d5cd874fbfe90c5490f6f98f90bbafd5b715cc2910208f27cc582e3e0fe960001b611785565b6116717f462cf870a91ff61b099bfb1b485349fbb18b249e8cda6fc16f93c0700652178160001b611785565b61169d7f31431f6dbd98ebe7871949b322ff218f5b8a6e71ec0e21b1d9370cbc468103f260001b611785565b670de0b6b3a7640000600260009054906101000a900473ffffffffffffffffffffffffffffffffffffffff1673ffffffffffffffffffffffffffffffffffffffff16634bcaad0b85856040518363ffffffff1660e01b8152600401611703929190611d4d565b60206040518083038186803b15801561171b57600080fd5b505afa15801561172f573d6000803e3d6000fd5b505050506040513d601f19601f820116820180604052508101906117539190611cc9565b61175d9190611e4e565b905092915050565b60016020528060005260406000206000915054906101000a900460ff1681565b50565b6117b47f24622c0d6eb693f818a2a7a33795e8ee71bccaabb7d5f8804b993407b75a017f60001b611785565b6117e07fb94aa090af75a2960c709c9ea2b3b78600fa48f40147903fd6c82a7e95833d2660001b611785565b61180c7fc1042c9958b577f0d2e22644e5fb44f1b04e97d950290557e78f24a48d97a58760001b611785565b6000600360008473ffffffffffffffffffffffffffffffffffffffff1673ffffffffffffffffffffffffffffffffffffffff168152602001908152602001600020905061187b7f831e506cda3750aa2cf1ba209df6a15871035d6b1d4d2aab7168a6e79ebaa14060001b611785565b6118a77f358d0c07043e0e93646f96917120d2e8ab24340df29b7247b66e47262c6243e060001b611785565b60006118b38484611617565b90506118e17fbcdb3c696e343f039645934474c5a8a755a9901e8dbe231173310c9cf428a84860001b611785565b61190d7fda362e72d0ff6651f5cd6c0855a429a1165d721beb4d3381c22ac436f7c269b860001b611785565b6000811115611b65576119427f3843f83c66926e936183ae8ecdfbae991adb4639641a19a38ccb662f659ce65b60001b611785565b61196e7feb0525e66bbcd982c95ab72826caa06e98320229f3337016dde484437aa9d51560001b611785565b61199a7f2942c012b83da515e7d5bf5cc254724aacd2d5fcf5313adb72812693c3fd820560001b611785565b6000818360010160008673ffffffffffffffffffffffffffffffffffffffff1673ffffffffffffffffffffffffffffffffffffffff1681526020019081526020016000205484600001546119ee9190611ea8565b6119f89190611e4e565b9050611a267fe4280023e091966252e244d9f6bd59dc6090b0493c2197cd706278a21d2605e960001b611785565b611a527f125b80db1e5777324d2a8c5246a269ccfac05457c4bba86ac82bf3d3e33c98b860001b611785565b670de0b6b3a764000081611a669190611e1d565b8360020160008673ffffffffffffffffffffffffffffffffffffffff1673ffffffffffffffffffffffffffffffffffffffff1681526020019081526020016000206000828254611ab69190611dc7565b92505081905550611ae97ff2232ba7ada427882ff082237881646615b5960c9f982288b348fd4d29cddc2460001b611785565b611b157fc16c441a222830315111dc3be73d92be1ada739aed8cb13be8c853f4a77f13a560001b611785565b82600001548360010160008673ffffffffffffffffffffffffffffffffffffffff1673ffffffffffffffffffffffffffffffffffffffff1681526020019081526020016000208190555050611b92565b611b917f5df272013e58264990daa40b2fcf995d6e911a0cee5d491dc85cf23519fbd4ed60001b611785565b5b50505050565b50565b600081359050611baa81611fcf565b92915050565b600081359050611bbf81611fe6565b92915050565b600081359050611bd481611ffd565b92915050565b600081519050611be981612014565b92915050565b600060208284031215611c0557611c04611fca565b5b6000611c1384828501611b9b565b91505092915050565b60008060408385031215611c3357611c32611fca565b5b6000611c4185828601611b9b565b9250506020611c5285828601611b9b565b9150509250929050565b60008060408385031215611c7357611c72611fca565b5b6000611c8185828601611b9b565b9250506020611c9285828601611bb0565b9150509250929050565b600060208284031215611cb257611cb1611fca565b5b6000611cc084828501611bc5565b91505092915050565b600060208284031215611cdf57611cde611fca565b5b6000611ced84828501611bda565b91505092915050565b611cff81611edc565b82525050565b611d0e81611eee565b82525050565b611d1d81611f36565b82525050565b611d2c81611f2c565b82525050565b6000602082019050611d476000830184611cf6565b92915050565b6000604082019050611d626000830185611cf6565b611d6f6020830184611cf6565b9392505050565b6000602082019050611d8b6000830184611d05565b92915050565b6000602082019050611da66000830184611d14565b92915050565b6000602082019050611dc16000830184611d23565b92915050565b6000611dd282611f2c565b9150611ddd83611f2c565b9250827fffffffffffffffffffffffffffffffffffffffffffffffffffffffffffffffff03821115611e1257611e11611f6c565b5b828201905092915050565b6000611e2882611f2c565b9150611e3383611f2c565b925082611e4357611e42611f9b565b5b828204905092915050565b6000611e5982611f2c565b9150611e6483611f2c565b9250817fffffffffffffffffffffffffffffffffffffffffffffffffffffffffffffffff0483118215151615611e9d57611e9c611f6c565b5b828202905092915050565b6000611eb382611f2c565b9150611ebe83611f2c565b925082821015611ed157611ed0611f6c565b5b828203905092915050565b6000611ee782611f0c565b9050919050565b60008115159050919050565b6000611f0582611edc565b9050919050565b600073ffffffffffffffffffffffffffffffffffffffff82169050919050565b6000819050919050565b6000611f4182611f48565b9050919050565b6000611f5382611f5a565b9050919050565b6000611f6582611f0c565b9050919050565b7f4e487b7100000000000000000000000000000000000000000000000000000000600052601160045260246000fd5b7f4e487b7100000000000000000000000000000000000000000000000000000000600052601260045260246000fd5b600080fd5b611fd881611edc565b8114611fe357600080fd5b50565b611fef81611eee565b8114611ffa57600080fd5b50565b61200681611efa565b811461201157600080fd5b50565b61201d81611f2c565b811461202857600080fd5b5056fea264697066735822122024f63a24ff63ee3fae0d4089f87dbfe926b8be9d41c41b905e809daefa17a5f864736f6c63430008070033",
  "contractName": "FeeSplitter",
  "deployedLinkReferences": {},
  "linkReferences": {},
  "sourceName": "contracts/FeeSplitter.sol"
}