{
  "_format": "hh-sol-artifact-1",
  "abi": [
    {
      "inputs": [
        {
          "internalType": "address",
          "name": "token",
          "type": "address"
        },
        {
          "internalType": "address",
          "name": "account",
          "type": "address"
        }
      ],
      "name": "curvesTokenBalance",
      "outputs": [
        {
          "internalType": "uint256",
          "name": "",
          "type": "uint256"
        }
      ],
      "stateMutability": "view",
      "type": "function"
    },
    {
      "inputs": [
        {
          "internalType": "address",
          "name": "token",
          "type": "address"
        }
      ],
      "name": "curvesTokenSupply",
      "outputs": [
        {
          "internalType": "uint256",
          "name": "",
          "type": "uint256"
        }
      ],
      "stateMutability": "view",
      "type": "function"
    }
  ],
  "bytecode": "0x608060405234801561001057600080fd5b5061047d806100206000396000f3fe608060405234801561001057600080fd5b50600436106100365760003560e01c806316593dcf1461003b5780634bcaad0b1461006b575b600080fd5b610055600480360381019061005091906102ea565b61009b565b60405161006291906103bd565b60405180910390f35b61008560048036038101906100809190610317565b6101a6565b60405161009291906103bd565b60405180910390f35b60006100c97f312bee9452262ec1c902a209efdc674b1c792010e43cc50a969474cb4de6103160001b6102bd565b6100f57f70b016bd28f35962d680612709610e10565539258570f62c67e1228128ed363f60001b6102bd565b6101217fb1cba5cfb8d0b24a8a72ecece6f068672b9f7bdbdc1fd6d144555fabdadf988960001b6102bd565b8173ffffffffffffffffffffffffffffffffffffffff166318160ddd6040518163ffffffff1660e01b815260040160206040518083038186803b15801561016757600080fd5b505afa15801561017b573d6000803e3d6000fd5b505050506040513d601f19601f8201168201806040525081019061019f9190610357565b9050919050565b60006101d47fad5796b84139e14890c4b94db135eb7cd131c3df7faadc188848aca5278ba74c60001b6102bd565b6102007fa792784a196f9f32e5cb5d2e1f08c3402fc0273f000e5612d75d4507d3ab1b3c60001b6102bd565b61022c7fa821b1532bf08ebad2b4b7b1bf26fc3934bd52d1de8e5e684fe357c2f9592b1060001b6102bd565b8273ffffffffffffffffffffffffffffffffffffffff166370a08231836040518263ffffffff1660e01b815260040161026591906103a2565b60206040518083038186803b15801561027d57600080fd5b505afa158015610291573d6000803e3d6000fd5b505050506040513d601f19601f820116820180604052508101906102b59190610357565b905092915050565b50565b6000813590506102cf81610419565b92915050565b6000815190506102e481610430565b92915050565b600060208284031215610300576102ff610414565b5b600061030e848285016102c0565b91505092915050565b6000806040838503121561032e5761032d610414565b5b600061033c858286016102c0565b925050602061034d858286016102c0565b9150509250929050565b60006020828403121561036d5761036c610414565b5b600061037b848285016102d5565b91505092915050565b61038d816103d8565b82525050565b61039c8161040a565b82525050565b60006020820190506103b76000830184610384565b92915050565b60006020820190506103d26000830184610393565b92915050565b60006103e3826103ea565b9050919050565b600073ffffffffffffffffffffffffffffffffffffffff82169050919050565b6000819050919050565b600080fd5b610422816103d8565b811461042d57600080fd5b50565b6104398161040a565b811461044457600080fd5b5056fea264697066735822122063471134d57ab795596b5adda02712ffa16aa99616b6e25c4e523e805db0d54264736f6c63430008070033",
  "contractName": "MockCurvesForFee",
  "deployedLinkReferences": {},
  "linkReferences": {},
  "sourceName": "contracts/Test/MockCurvesForFee.sol"
}