{
  "_format": "hh-sol-artifact-1",
  "abi": [
    {
      "inputs": [],
      "stateMutability": "nonpayable",
      "type": "constructor"
    },
    {
      "inputs": [
        {
          "internalType": "address",
          "name": "",
          "type": "address"
        }
      ],
      "name": "managers",
      "outputs": [
        {
          "internalType": "bool",
          "name": "",
          "type": "bool"
        }
      ],
      "stateMutability": "view",
      "type": "function"
    },
    {
      "inputs": [],
      "name": "owner",
      "outputs": [
        {
          "internalType": "address",
          "name": "",
          "type": "address"
        }
      ],
      "stateMutability": "view",
      "type": "function"
    },
    {
      "inputs": [
        {
          "internalType": "address",
          "name": "manager_",
          "type": "address"
        },
        {
          "internalType": "bool",
          "name": "value",
          "type": "bool"
        }
      ],
      "name": "setManager",
      "outputs": [],
      "stateMutability": "nonpayable",
      "type": "function"
    },
    {
      "inputs": [
        {
          "internalType": "address",
          "name": "owner_",
          "type": "address"
        }
      ],
      "name": "transferOwnership",
      "outputs": [],
      "stateMutability": "nonpayable",
      "type": "function"
    }
  ],
  "bytecode": "0x608060405234801561001057600080fd5b506100437f74e7f17bdf2dee5187b97e95caa2efa63d4dfba3db3068d9fcb9cf8652bb137b60001b6101a060201b60201c565b6100757f49f70d99e08c1d1eb63178e5551a70f38b0622f666d38106946d9c078c1633b660001b6101a060201b60201c565b6100a77f1368ff9ab92b3194be9ea5d89f8e39ed78ec009f97052ea82fcec20efa3ce82360001b6101a060201b60201c565b336000806101000a81548173ffffffffffffffffffffffffffffffffffffffff021916908373ffffffffffffffffffffffffffffffffffffffff1602179055506101197f3cf68a010911603c9b3554dd18a8cbbf79222e0a2b8408f1f01425d4bd643a6860001b6101a060201b60201c565b61014b7f271ffb2a1270c270aab9d5cfc8e23cb78503a8b47a05d84350f1c5fe7adee59660001b6101a060201b60201c565b60011515600160003373ffffffffffffffffffffffffffffffffffffffff1673ffffffffffffffffffffffffffffffffffffffff16815260200190815260200160002060009054906101000a905050506101a3565b50565b6105c6806101b26000396000f3fe608060405234801561001057600080fd5b506004361061004c5760003560e01c80638da5cb5b14610051578063a5e90eee1461006f578063f2fde38b1461008b578063fdff9b4d146100a7575b600080fd5b6100596100d7565b60405161006691906104e9565b60405180910390f35b6100896004803603810190610084919061048b565b6100fb565b005b6100a560048036038101906100a0919061045e565b61028e565b005b6100c160048036038101906100bc919061045e565b610411565b6040516100ce9190610504565b60405180910390f35b60008054906101000a900473ffffffffffffffffffffffffffffffffffffffff1681565b6101277f4fcac04b723ddc84cbfaad6493c1263c75c4dcdad1e5be2fcc39bfd9d0c9aec960001b610431565b6101537fcca1c812385a9edd42ae2639345472fbc6fb3f2c45ac198c75dd2895eb8bbb3260001b610431565b61017f7f8cb3d5655e4d5fa5bd2b1c69ba8e1e1ebf1b3dc7b5378bb14ad3458e75921eac60001b610431565b60008054906101000a9050506101b77ff43bc64bed64941de2be64f3f60909fa9aa68e91e87bdf1b7aa0225ea419c7bb60001b610431565b6101e37fef115b4592ec06ad6c54e99dda55f6a6a28a12057170634b04cf05dbccf8396360001b610431565b61020f7f639563676db1410662e83ae86f927fc7f14e49a9d7e8f1437f3c7a1f839318a360001b610431565b61023b7f5360b0ad6f149e9d5e18a126ee702bad3d209d70e1a92d1707b33ecd6eea390860001b610431565b801515600160008473ffffffffffffffffffffffffffffffffffffffff1673ffffffffffffffffffffffffffffffffffffffff16815260200190815260200160002060009054906101000a905050505050565b6102ba7f4fcac04b723ddc84cbfaad6493c1263c75c4dcdad1e5be2fcc39bfd9d0c9aec960001b610431565b6102e67fcca1c812385a9edd42ae2639345472fbc6fb3f2c45ac198c75dd2895eb8bbb3260001b610431565b6103127f8cb3d5655e4d5fa5bd2b1c69ba8e1e1ebf1b3dc7b5378bb14ad3458e75921eac60001b610431565b60008054906101000a90505061034a7ff43bc64bed64941de2be64f3f60909fa9aa68e91e87bdf1b7aa0225ea419c7bb60001b610431565b6103767ff6224f0fd5f19e0a85a2fd32acd40291ccbb02594a279194380acd227bf82c2a60001b610431565b6103a27fbb2aa5180e9f7fedb7a14dfb6bd8641a8aa972d49a3279d314dd9a25e1d3fdd060001b610431565b6103ce7f4d6b79315cb008014f9d6d4997f0b6e95eba005c1a5a6466894be71fb321cb7360001b610431565b806000806101000a81548173ffffffffffffffffffffffffffffffffffffffff021916908373ffffffffffffffffffffffffffffffffffffffff16021790555050565b60016020528060005260406000206000915054906101000a900460ff1681565b50565b60008135905061044381610562565b92915050565b60008135905061045881610579565b92915050565b6000602082840312156104745761047361055d565b5b600061048284828501610434565b91505092915050565b600080604083850312156104a2576104a161055d565b5b60006104b085828601610434565b92505060206104c185828601610449565b9150509250929050565b6104d48161051f565b82525050565b6104e381610531565b82525050565b60006020820190506104fe60008301846104cb565b92915050565b600060208201905061051960008301846104da565b92915050565b600061052a8261053d565b9050919050565b60008115159050919050565b600073ffffffffffffffffffffffffffffffffffffffff82169050919050565b600080fd5b61056b8161051f565b811461057657600080fd5b50565b61058281610531565b811461058d57600080fd5b5056fea2646970667358221220302f4ca100b4b8fa2988d02c94050d1b426fcc0202798d989ce850d7cc20fdd064736f6c63430008070033",
  "contractName": "Security",
  "deployedLinkReferences": {},
  "linkReferences": {},
  "sourceName": "contracts/Security.sol"
}